:10000000D2EF01F0F76A140FF66E000EF722090026
:10001000F55012003F7FBFFFF76A280FF66E000E03
:10002000F7220900F550120080C094D42E002E0053
:100030002E004E4F2044485431310000444F43209D
:10004000534149204455204C49455520444854319A
:1000500031004E4F20445331384232300000486165
:1000600079206E68616E207068696D20626174200D
:100070006B790000506A505007080EE34FBE02D063
:100080008D9401D08D84969496908D9096908D80CD
:10009000D8904F36502AEFD7120049C04AF048C0D6
:1000A0004BF04AC04FF0E6DF4BC04FF0E3DF1200E9
:1000B000496A486AF2DF496A486AEFDF496A486A72
:1000C000ECDF496A486AE9DF95968C8695968C96AE
:1000D00095988C8895988C98959A8C8A959A8C9AF4
:1000E000959E8C8E959E8C9E95948C8495948C94E4
:1000F00049684868D2DF49684868CFDF959C8C8C96
:10010000959C8C9C90EF00F0FF0E926E3C0E936ECF
:10011000F10E946E000E966E956E956A8C6AC8D735
:10012000F19E056A046AC050C00B0209C06EC08E01
:10013000C280C150C00B0C09C16E95908C901DEF10
:1001400002F026C04FF096DF27C04FF093DF28C0A3
:100150004FF090DF29C04FF08DDF95948C849594FB
:100160008C94BAEF00F04D50286E281E4EC029F036
:10017000291EE7D712002A802AC04DF04CC04EF04D
:10018000F2DF2A902AC04DF04CC04EF0ECDF120096
:100190002A944BC04CF0EFDF1200EA6A4A0EE96E77
:1001A000EF500DE0060E016E006A002EFED7012E04
:1001B000FBD77B0E006E002EFED7EF2EF3D712007A
:1001C0002A902A922A842A96380E4B6EE1DF420E3C
:1001D000006E002EFED700000C0E4B6ED9DF420ED3
:1001E000006E002EFED70000010E4B6ED1DF020E16
:1001F0004A6ED3DF060E4B6ECBDF420E006E002E32
:10020000FED700001EEF02F0036A4850F2CF4AF01A
:10021000F29E02DF4ABEF28E49244A6E4B6EB8DF70
:1002200012002A844AC04CF0A6DF12000900F552E1
:100230000CE0F6CF48F0F7CF49F0F5CF4AF0F1DF08
:1002400048C0F6FF49C0F7FFF1D726EF02F0476A32
:100250004750130812E3036A4750320F016E000E35
:10026000032201C048F003C049F003C0EAFF01C007
:10027000E9FF200EEF6E472AEBD727EF02F04B681D
:100280004BC04AF04C6A4C50030826E3036A4C50BA
:10029000F2CF4DF0F29EB6DE4DBEF28E936A8A6EBC
:1002A000938481B404D0030E4B6E16D013D0938682
:1002B00081B604D0020E4B6E0FD00CD0938881B85B
:1002C00004D0010E4B6E08D005D0938A81BA02D0BB
:1002D0004B6A02D04C2AD7D74B3C01D005D04C50AA
:1002E000040DF3504B244A6E4AC001F01200C7DFE0
:1002F00001C048F0483C01D00FD0140E4A6E4DDFCB
:10030000BEDF01C048F0050E4A6E47DFB8DF01C00E
:1003100049F04850495CF7E048C001F028EF02F08E
:10032000476A475013081CE3036A4750320F016EB7
:10033000000E032201C048F003C049F0010E47241B
:10034000036A320FE96E000E0320EA6EEFCF4AF027
:1003500049C0EAFF01C0E9FF4AC0EFFF472AE1D7E1
:100360004650090804E3300E4624456E03D0370E8C
:100370004624456E010E486E496A46DF476A47507B
:1003800013080EE3036A4750320FE96E000E032094
:10039000EA6EEFCF48F048C04AF043DF472AEFD774
:1003A0002EEF02F0F86AD09EB886080EAF6E020EED
:1003B000B06EA60EAC6E900EAB6E076A066A2A6827
:1003C000220E2F6E200E306E319031923194C1503A
:1003D000C00B0F09C16E070EB46E0FD00C4008FFA2
:1003E0001680303315031602219092303010082009
:1003F00002209096000000000000000EF86E030E30
:10040000F76EDC0EF66E0900F550006E000A13E080
:100410000900F550016EE8BE05D00F0BEA6E090029
:10042000F5CFE9FF01BC090001AC0900F5CFEEFFF3
:10043000004EE9D7F9D7F86A67D6C2D6486A496A42
:10044000E3DE5E0EF66E000EF76EF0D600D74FD7E5
:1004500001C046F0463C01D004D062D7C80E4A6EB7
:060460009CDEF5D703004D
:020000040030CA
:0E00000007CC3E1E0087A1000FC00FE00F408E
:00000001FF
;PIC18F4550
;CRC=AD04  CREATED="23-Oct-23 15:34"
