:1000000003EF04F0F76A140FF66E000EF7220900F2
:10001000F5501200C0F9A4B0999282F880908883BC
:10002000C6A1868EF76A340FF66E000EF72209001D
:10003000F55012007FBFDFEFF7FBFDFEFF002E0043
:100040002E002E004E4F2044485431310000444FC2
:100050004320534149204455204C494555204448AC
:10006000543131004E4F2044533138423230000079
:10007000486A485007080EE347BE02D08D9401D06D
:100080008D84969496908D9096908D80D8904736DA
:10009000482AEFD712003CC03DF03BC03EF03DC0C7
:1000A00047F0E6DF3EC047F0E3DF12003C6A3B6A00
:1000B000F2DF3C6A3B6AEFDF3C6A3B6AECDF3C6A9A
:1000C0003B6AE9DF95968C8695968C9695988C88F8
:1000D00095988C98959A8C8A959A8C9A959E8C8EE8
:1000E000959E8C9E95948C8495948C943C683B68EA
:1000F000D2DF3C683B68CFDF959C8C8C959C8C9CB8
:100100008EEF00F0FF0E926E3C0E936EF10E946E29
:10011000000E966E956E956A8C6AC8D7F19E056A38
:10012000046AC050C00B0209C06EC08EC280C150AC
:10013000C00B0C09C16E95908C9053EF04F004C075
:100140003BF005C03CF03CC047F092DF3BC047F0BD
:100150008FDF95968C8695968C96B1EF00F0048A89
:10016000EED754EF04F0F00EBA1694948B940C0E64
:10017000BD6EB76AB66A94928B9255EF04F0016A2D
:10018000026A006A036A465002E1455018E0100E08
:10019000476ED89043364436003603364650035CEB
:1001A00002E14550005C07E34550005ED8A003061D
:1001B0004650035ED88001360236472EEAD7120039
:1001C000036A3D500C0FE96E000E0320EA6E3CC03E
:1001D00044F03BC043F0466A0A0E456ED0DF00C0D3
:1001E00041F003C042F003C003F00050F2CF43F0EF
:1001F000F29E08DF43BEF28EEF6E010E3D24036ACD
:100200000C0FE96E000E0320EA6E3CC044F03BC0C8
:1002100043F0466A0A0E456EB2DF02C042F001C0EA
:1002200041F002C044F001C043F0466A0A0E456E38
:10023000A6DF00C041F003C042F003C003F000504D
:10024000F2CF43F0F29EDEDE43BEF28EEF6E020E80
:100250003D24036A0C0FE96E000E0320EA6E3CC0D9
:1002600044F03BC043F0466A640E456E88DF02C02E
:1002700042F001C041F002C044F001C043F0466AC0
:100280000A0E456E7CDF00C041F003C042F003C09F
:1002900003F00050F2CF43F0F29EB4DE43BEF28E84
:1002A000EF6E030E3D24036A0C0FE96E000E03206F
:1002B000EA6E3CC044F03BC043F0030E466EE80ECD
:1002C000456E5DDF02C042F001C041F002C044F063
:1002D00001C043F0466A0A0E456E51DF00C041F08E
:1002E00003C042F003C003F00050F2CF43F0F29E8F
:1002F00089DE43BEF28EEF6E3E2C3CD0030E3D24D1
:10030000036A0C0FE96E000E0320EA6EEF50C0087E
:1003100031E1030E3D24036A0C0FE96E000E032049
:10032000EA6EEF68020E3D24036A0C0FE96E000EC0
:100330000320EA6EEF50C0081DE1020E3D24036A5F
:100340000C0FE96E000E0320EA6EEF68010E3D24EB
:10035000036A0C0FE96E000E0320EA6EEF50C0082E
:1003600009E1010E3D24036A0C0FE96E000E032023
:10037000EA6EEF6820EF02F04250016A415C03E24E
:1003800041C000F00CD0006A080E436E41360036C2
:100390004250005CD8B0006E0136432EF7D71200F1
:1003A000036A3C500C0FE96E000E0320EA6E3BC05E
:1003B00041F00A0E426EE0DF036A0050F2CF40F0D7
:1003C000F29E20DE40BEF28EEF6E010E3C24036AE8
:1003D0000C0FE96E000E0320EA6E3BC041F00A0EDE
:1003E000426ECADF01C041F00A0E426EC5DF036AE9
:1003F0000050F2CF40F0F29E05DE40BEF28EEF6E6E
:100400003D2C14D0010E3C24036A0C0FE96E000E43
:100410000320EA6EEF50C00809E1010E3C24036A94
:100420000C0FE96E000E0320EA6EEF6827EF02F072
:1004300033C03CF032C03BF03D6A010E3E6EC0D688
:1004400034C03BF0050E3C6E010E3D6EA9D7120084
:10045000030E3E5E09E3EA6A3E0EE96EEF5004E0E9
:1004600001D000D0EF2EFDD71200938A81BA1BD0A5
:10047000062AD8B4072A020E3D6EF90E3E6EE8DF5A
:100480003D2EFBD73C50075C0AE303E13B50065C82
:1004900006E3076A066A010E016E07D003D0000E5C
:1004A000016E03D002D0000E016E7FEF02F043C058
:1004B00047F0DEDD44C047F0DBDD45C047F0D8DD66
:1004C00046C047F0D5DD95988C8895988C987AEF42
:1004D00002F03CC03FF03BC040F03EC041F03DC0A8
:1004E00042F03FC043F040C044F041C045F042C03C
:1004F00046F0DDD712003C6A0A0E3B6EB6D70152B9
:1005000011E031BC0FD0318A318C376A3668396AD4
:10051000386837C03CF036C03BF039C03EF038C0D8
:100520003DF0D7DF78EF04F03B503D02F3CF01F010
:10053000F4CF00F03E02F35000263C503D02F35051
:100540000020026E1200036A3D50F2CF3FF0F29E8F
:1005500069DD3FBEF28E016E3F6E3F1E3FC047F029
:1005600087DD3EC03FF03F1E3FC047F081DD959ADA
:100570008C8A959A8C9A1200EA6A3C0EE96EEF50CA
:100580000DE0060E016E006A002EFED7012EFBD78D
:100590007B0E006E002EFED7EF2EF3D7ECEF02F0AD
:1005A000080E3D6E3E68CFDFEDEF02F03B6A3B6A1E
:1005B0003B50070814E3036A3B500C0FE96E000E32
:1005C0000320EA6EEFCF3CF03BC03DF03CC03EF074
:1005D000BADF010E3C6ED0D7E3D73B2AE9D7120031
:1005E0003A6A3A50630812E3E1DF938481B40CD095
:1005F000319C376A366A37C03CF036C03BF039C0B0
:100600003EF038C03DF065DF3A2AEBD735EF03F016
:1006100031AA2DD031AC2BD0355228E134503108DD
:1006200025E3342AD8B4352A35C03CF034C03BF039
:100630003E6A140E3D6E78DF02C033F001C032F026
:1006400033C002F032C001F0023201320232013214
:10065000023201C0BEFF02320230300B006EBD50CC
:10066000CF0B0010BD6EE4DEBBD701D0318C79EF2B
:1006700004F0938681B61BD0062AD8B4072A020E4E
:100680003D6EF90E3E6EE4DE3D2EFBD73C50075C1E
:100690000AE303E13B50065C06E3076A066A010EC3
:1006A000016E07D003D0000E016E03D002D0000E01
:1006B000016E5FEF03F03C6A0A0E3B6EDAD701521F
:1006C00010E031BE0ED0318E3768366A396A38682C
:1006D00037C03CF036C03BF039C03EF038C03DF08A
:1006E000F8DE7AEF04F03A6A3A50630812E35EDF0C
:1006F000938481B40CD0319E376A366A37C03CF09F
:1007000036C03BF039C03EF038C03DF0E2DE3A2A58
:10071000EBD7B8EF03F031AA3BD031AE39D0345229
:1007200002E1355226E03450D8B43506340635C0DF
:100730003CF034C03BF03E6A140E3D6EF5DE02C064
:1007400033F001C032F033C002F032C001F00232A7
:10075000013202320132023201C0BEFF02320230E7
:10076000300B006EBD50CF0B0010BD6E61DEBBD7ED
:100770000FD0319A319E376A366A396A386A37C083
:100780003CF036C03BF039C03EF038C03DF0A1DE51
:100790007BEF04F0938881B834D031AA32D0319AFB
:1007A000319C319E356A346A35C03CF034C03BF030
:1007B0003E6A140E3D6EB8DE02C033F001C032F066
:1007C00033C002F032C001F0023201320232013293
:1007D000023201C0BEFF02320230300B006EBD504B
:1007E000CF0B0010BD6E376A366A396A386A37C077
:1007F0003CF036C03BF039C03EF038C03DF069DE19
:1008000017DE7CEF04F0F86AD09EB886080EAF6E53
:10081000020EB06EA60EAC6E900EAB6E076A066A44
:100820002A68220E2F6E200E306E31903192319454
:1008300031963198356A346A319AC150C00B0F092C
:10084000C16E070EB46E0FD00C4008FF1680303317
:100850001503160221909230301008200220909645
:10086000000000000000000EF86E080EF76E480E43
:10087000F66E0900F550006E000A13E00900F5500D
:10088000016EE8BE05D00F0BEA6E0900F5CFE9FF57
:1008900001BC090001AC0900F5CFEEFF004EE9D71D
:1008A000F9D7F86A2FD45BD45ED4000E0609CA6E5D
:1008B000F90ECB6E336A326A356A346A33C002F09D
:1008C00032C001F00232013202320132023201C082
:1008D000BEFF02320230300B006EBD50CF0B001055
:1008E000BD6EBF0E106EA4DD319A319C319E03D6D1
:1008F0008FD6E1D610D74ED73A6A3A50010803E3B3
:0A09000055DE3A2AFAD7F3D70300B8
:020000040030CA
:0E00000007CC3E1E0087A1000FC00FE00F408E
:00000001FF
;PIC18F4550
;CRC=8196  CREATED="11-Dec-23 13:17"
