:1000000008EF01F0F76A140FF66E000EF7220900F0
:10001000F55012007FBFDFEFF7FBFDFEFF002E0063
:100020002E002E004E4F2044485431310000444FE2
:100030004320534149204455204C494555204448CC
:10004000543131004E4F2044533138423230000099
:10005000586A585007080EE357BE02D08D9401D05D
:100060008D84969496908D9096908D80D8905736EA
:10007000582AEFD7120053C054F052C055F054C064
:1000800057F0E6DF55C057F0E3DF1200536A526ABB
:10009000F2DF536A526AEFDF536A526AECDF536A47
:1000A000526AE9DF95968C8695968C9695988C8801
:1000B00095988C98959A8C8A959A8C9A959E8C8E08
:1000C000959E8C9E95948C8495948C9453685268DC
:1000D000D2DF53685268CFDF959C8C8C959C8C9CAA
:1000E0007EEF00F0FF0E926E3C0E936EF10E946E5A
:1000F000000E966E956E956A8C6AC8D7F19E056A59
:10010000046AC050C00B0209C06EC08EC280C150CC
:10011000C00B0C09C16E95908C905BEF01F0336AB7
:1001200052C032F0376A366A080E5224335220E148
:10013000325C1EE20C0E3624016E000E3720036E78
:100140003A0E3224E96E000E3320EA6EEFCF55F0FE
:1001500003C0EAFF01C0E9FF55C0EFFF33C003F061
:100160003250322AD8B4332A362AD8B4372ADCD7C8
:1001700065EF01F0036A5450F2CF56F0F29E42DF71
:1001800056BEF28E016E566E561E56C057F060DF98
:1001900055C056F0561E56C057F05ADF959A8C8AB5
:1001A000959A8C9A1200EA6A530EE96EEF500DE0B0
:1001B000060E016E006A002EFED7012EFBD77B0EC5
:1001C000006E002EFED7EF2EF3D703EF01F0080EDE
:1001D000546E5568CFDF04EF01F0526A526A5250F4
:1001E000070814E3036A52500C0FE96E000E032057
:1001F000EA6EEFCF53F052C054F053C055F0BADF5F
:10020000010E536ED0D7E3D7522AE9D76DEF01F034
:10021000F86AD09EB886080EAF6E020EB06EA60EBB
:10022000AC6E900EAB6E076A066A2A68220E2F6EBD
:10023000200E306E319031923194C150C00B0F09B5
:10024000C16E070EB46E17D00C4008FF1680303315
:10025000150316022190923030100820022090964B
:100260000000000008403AFF088092F9A4F982F9E2
:10027000F9A408C0FF00000EF86E020EF76E480EDB
:10028000F66E0900F550006E000A13E00900F55003
:10029000016EE8BE05D00F0BEA6E0900F5CFE9FF4D
:1002A00001BC090001AC0900F5CFEEFF004EE9D713
:1002B000F9D7F86A17D7356A346A355216E13450DF
:1002C000100813E334C052F02AD7396A386A395219
:1002D00008E13850140805E380D7382AD8B4392A01
:0E02E000F6D7342AD8B4352AE8D7E5D703007C
:020000040030CA
:0E00000007CC3E1E0087A1000FC00FE00F408E
:00000001FF
;PIC18F4550
;CRC=C72F  CREATED="29-Oct-23 15:42"
