:1000000035EF04F0F76A140FF66E000EF7220900C0
:10001000F5501200C0F9A4B0999282F880908883BC
:10002000C6A1868EF76A340FF66E000EF72209001D
:10003000F55012003F7FBFFFF76A480FF66E000EC3
:10004000F7220900F550120080C094D42E002E0033
:100050002E004E4F2044485431310000444F43207D
:10006000534149204455204C49455520444854317A
:1000700031004E4F20445331384232300000866BFD
:10008000865107080EE385BF02D08D9401D08D8480
:10009000969496908D9096908D80D8908537862BEB
:1000A000EFD7120072C073F071C074F073C085F0A6
:1000B000E6DF74C085F0E3DF1200726B716BF2DF74
:1000C000726B716BEFDF726B716BECDF726B716B6C
:1000D000E9DF95968C8695968C9695988C88959860
:1000E0008C98959A8C8A959A8C9A959E8C8E959ED2
:1000F0008C9E95948C8495948C9472697169D2DFEE
:1001000072697169CFDF959C8C8C959C8C9C95EF66
:1001100000F0FF0E926E3C0E936EF10E946E000E88
:10012000966E956E956A8C6AC8D7F19E056A046AC8
:10013000C050C00B0209C06EC08EC280C150C00B3F
:100140000C09C16E95908C90A2EF04F026C085F04A
:1001500096DF27C085F093DF28C085F090DF29C0A7
:1001600085F08DDF95948C8495948C94BFEF00F08E
:100170007A51286E281E7BC029F0291EE7D712006D
:100180002A802AC07AF079C07BF0F2DF2A902AC058
:100190007AF079C07BF0ECDF12002A9478C079F015
:1001A000EFDF1200EA6A740EE96EEF500DE0060E02
:1001B000016E006A002EFED7012EFBD77B0E006E6B
:1001C000002EFED7EF2EF3D712002A902A922A840F
:1001D0002A96380E786FE1DF420E006E002EFED7B1
:1001E00000000C0E786FD9DF420E006E002EFED795
:1001F0000000010E786FD1DF020E746FD3DF060EA0
:10020000786FCBDF420E006E002EFED70000A3EF0A
:1002100004F0036A7551F2CF77F0F29E0DDF77BFDD
:10022000F28E7625776F786FB8DF12002A8476C059
:1002300079F0A6DF120074C003F073C0E9FF74C048
:10024000EAFFEF523CE07251130802E2726B712B2D
:100250007151030801E2716B71C075F072C076F0E4
:10026000D8DF74C003F073C0E9FF74C0EAFFEF5039
:100270000A0807E1712B71C075F072C076F0C9DF12
:100280001AD074C003F073C0E9FF74C0EAFFEF50E6
:100290000D0805E1756B72C076F0BBDF0CD074C041
:1002A00003F073C0E9FF74C0EAFFEFCF75F075C0CB
:1002B00076F0BCDF722B732BD8B4742BBCD7120032
:1002C000006A016A7151D89072B100260032013281
:1002D00072B300260032013272B5002600320132BC
:1002E00072B700260032013272B9002600320132A4
:1002F00072BB00260032013272BD0026003201328C
:1003000072BF002600320132120074517619800B40
:10031000786F74AF05D0731F741F732BD8B4742B10
:1003200076AF05D0751F761F752BD8B4762B016A72
:10033000026A006A036A765102E1755118E0100EF4
:10034000776FD89073377437003603367651035C75
:1003500002E17551005C07E37551005ED8A0030609
:100360007651035ED88001360236772FEAD778AF10
:1003700005D0011E021E012AD8B4022A120034C080
:1003800071F00A0E726F9CDF33500124036AE8BEDD
:100390000306396E03C03AF0020E756F120E766FC7
:1003A00038DF3AC074F039C073F0766B0A0E756F9F
:1003B000ACDF02C072F001C071F002C074F001C085
:1003C00073F0766B0A0E756FA0DF00C071F003C08A
:1003D00072F0300E7127000E722371C076F026DFA6
:1003E0003AC074F039C073F0766B0A0E756F8DDF0A
:1003F00000C071F003C072F0300E7127000E72233E
:1004000071C076F013DF1200030E745F09E3EA6A2D
:10041000740EE96EEF5004E001D000D0EF2EFDD74E
:100420001200938A81BA1BD0062AD8B4072A020E7A
:10043000736FF90E746FE8DF732FFBD77251075C8F
:100440000AE303E17151065C06E3076A066A010EDE
:10045000016E07D003D0000E016E03D002D0000E53
:10046000016E5BEF02F081C085F009DE82C085F08D
:1004700006DE83C085F003DE84C085F000DE95983B
:100480008C8895988C9856EF02F07AC07DF079C0F0
:100490007EF07CC07FF07BC080F07DC081F07EC0AC
:1004A00082F07FC083F080C084F0DDD71200726BD1
:1004B000FA0E716FB6D7012C0FD0A80ED56E38C0CA
:1004C000D7FF37C0D6FF3CC07AF03BC079F03EC0C2
:1004D0007CF03DC07BF0D9DFC3EF04F0938881B896
:1004E0001BD0062AD8B4072A020E736FF90E746F58
:1004F0008BDF732FFBD77251075C0AE303E1715165
:10050000065C06E3076A066A010E016E07D003D097
:10051000000E016E03D002D0000E016E94EF02F0C7
:10052000726BFA0E716FDAD7012C0AD0D56A3CC013
:100530007AF03BC079F03EC07CF03DC07BF0A5DF97
:10054000C4EF04F0746974C073F0756B75510308DF
:1005500026E3036A7551F2CF76F0F29E63DD76BF33
:10056000F28E936A8A6E938481B404D0030E746F02
:1005700016D013D0938681B604D0020E746F0FD0BC
:100580000CD0938881B804D0010E746F08D005D0C8
:10059000938A81BA02D0746B02D0752BD7D7743D81
:1005A00001D005D07551040DF3507425736F73C0DD
:1005B00001F01200C7DF01C071F0713D01D00FD012
:1005C000140E746FEFDDBEDF01C071F0050E746FA5
:1005D000E9DDB8DF01C072F07151725DF7E071C002
:1005E00001F08FEF03F073C075F074C076F072C045
:1005F00078F071C077F076C07AF075C079F078C085
:100600007CF077C07BF041DF12007851016A775DA2
:1006100003E277C000F00CD0006A080E796F7737DC
:1006200000367851005CD8B0006E0136792FF7D7CC
:100630001200036A7251080FE96E000E0320EA6E81
:1006400071C077F00A0E786FE0DF036A0050F2CFD6
:1006500076F0F29ED7DC76BFF28EEF6E010E725D01
:10066000036A080FE96E000E0320EA6E71C077F08E
:100670000A0E786FCADF01C077F00A0E786FC5DF07
:10068000036A0050F2CF76F0F29EBCDC76BFF28EA9
:10069000EF6E732D14D0010E725D036A080FE96EC0
:1006A000000E0320EA6EEF50C00809E1010E725DF2
:1006B000036A080FE96E000E0320EA6EEF6812006D
:1006C0000BC085F0DCDC0AC085F0D9DC09C085F000
:1006D000D6DC08C085F0D3DC959C8C9C959C8C8CDA
:1006E0008DEF03F034C071F00A0E726FE9DD335004
:1006F0000124036AE8BE0306396E03C03AF039C02C
:1007000071F0010E726F736F94DF37C071F0030EDA
:10071000726F010E736F8DDFD3D712004BD701C0FC
:1007200032F03250090806E331A604D033C034F069
:1007300032C033F032500C0802E1336A346A32506E
:100740000F0806E13186746B73697269716B4BDF58
:1007500032500E0806E13196746B736B726B716BDD
:1007600042DFC0DFC5EF04F004C073F005C074F0D1
:1007700074C085F084DC73C085F081DC95968C862E
:1007800095968C9612000580EFDF72C073F0732B84
:100790007307D8B403D0746905DDFAD771C074F05B
:1007A00001DD0590E1DF31EF04F0010E756F120EEF
:1007B000766F2FDD38C074F037C073F0766B0A0E99
:1007C000756FA3DD02C072F001C071F002C074F059
:1007D00001C073F0766B0A0E756F97DD00C071F083
:1007E00003C072F0300E7127000E722371C076F0D4
:1007F0001DDD38C074F037C073F0766B0A0E756F6C
:1008000084DD00C071F003C072F0300E7127000E5D
:10081000722371C076F00ADD33EF04F0D650376EE4
:10082000D7CF38F03750355C03E13850365C19E0EB
:1008300038C036F037C035F03AAE03D038AE0AD003
:1008400002D038BE0ED03A50385C0BE303E1395089
:10085000375C07E3D76AD66A010E726F2C0E716F90
:1008600092D740DFA2D7C7EF04F0F86AD09EB886CF
:10087000080EAF6E020EB06EA60EAC6E900EAB6E92
:10088000076A066A2A68220E2F6E200E306E31909B
:10089000319231943196386A376A3C683B683E6AD7
:1008A0003D6AC150C00B0F09C16E070EB46E29D04E
:1008B0000C4008FF16803033150316022190923049
:1008C00030100820022090960000000032003F44C3
:1008D000454D2053414E205048414D2044554E47F0
:1008E00020543000474941205452492044454D3A54
:1008F000200047494F492048414E2044454D3A2069
:100900000000000EF86E080EF76EB00EF66E0900CD
:10091000F550006E000A13E00900F550016EE8BEC4
:1009200005D00F0BEA6E0900F5CFE9FF01BC090005
:1009300001AC0900F5CFEEFF004EE9D7F9D7F86A10
:1009400089EF00F042D4716B726B746B3F0E736F62
:1009500072DC010E716F726B746B540E736F6BDC13
:10096000020E716F726B746B620E736F64DCA80E93
:10097000D56ED76AD66A366A010E356E3A6A320E7D
:10098000396EFDDC94D5CCD5C9D6F9DC47D7FAD77A
:02099000030062
:020000040030CA
:0E00000007CC3E1E0087A1000FC00FE00F408E
:00000001FF
;PIC18F4550
;CRC=9833  CREATED="30-Oct-23 15:22"
