:1000000026EF01F0F76A140FF66E000EF7220900D2
:10001000F550120080C094D42E002E002E004E4FBA
:100020002044485431310000444F4320534149207B
:100030004455204C494555204448543131004E4FD9
:10004000204453313842323000006B686F612064C5
:1000500069656E2D6469656E20747500626D20643B
:1000600069656E7475636F6E672D6E67686965701C
:1000700000003A6A3A5007080EE339BE02D08D9468
:1000800001D08D84969496908D9096908D80D89086
:1000900039363A2AEFD7120033C034F032C035F087
:1000A00034C039F0E6DF35C039F0E3DF1200336ADF
:1000B000326AF2DF336A326AEFDF336A326AECDFC8
:1000C000336A326AE9DF95968C8695968C96959878
:1000D0008C8895988C98959A8C8A959A8C9A959EEE
:1000E0008C8E959E8C9E95948C8495948C9433687C
:1000F0003268D2DF33683268CFDF959C8C8C959C58
:100100008C9C8FEF00F0FF0E926E3C0E936EF10E02
:10011000946E000E966E956E956A8C6AC8D7F19EA5
:10012000056A046AC050C00B0209C06EC08EC2804E
:10013000C150C00B0C09C16E95908C9071EF01F00D
:1001400026C039F096DF27C039F093DF28C039F098
:1001500090DF29C039F08DDF95948C8495948C9430
:10016000B9EF00F03750286E281E38C029F0291E3C
:10017000E7D712002A802AC037F036C038F0F2DF05
:100180002A902AC037F036C038F0ECDF12002A94EB
:1001900035C036F0EFDF1200EA6A330EE96EEF5039
:1001A0000DE0060E016E006A002EFED7012EFBD771
:1001B0007B0E006E002EFED7EF2EF3D712002A9092
:1001C0002A922A842A96380E356EE1DF420E006E9E
:1001D000002EFED700000C0E356ED9DF420E006EE9
:1001E000002EFED70000010E356ED1DF020E336EF9
:1001F000D3DF060E356ECBDF420E006E002EFED72B
:10020000000072EF01F0036A3250F2CF34F0F29E38
:10021000F9DE34BEF28E3324346E356EB8DF120050
:100220002A8434C036F0A6DF20EF01F00900F55231
:100230000CE0F6CF32F0F7CF33F0F5CF34F0F0D753
:1002400032C0F6FF33C0F7FFF1D71200F86AD09E34
:10025000B886080EAF6E020EB06EA60EAC6E900E93
:10026000AB6E076A066A2A68220E2F6E200E306E69
:10027000319031923194C150C00B0F09C16E070EFD
:10028000B46E0FD00C4008FF1680303315031602F1
:10029000219092303010082002209096000000003B
:1002A0000000000EF86E020EF76E840EF66E090066
:1002B000F550006E000A13E00900F550016EE8BE2B
:1002C00005D00F0BEA6E0900F5CFE9FF01BC09006C
:1002D00001AC0900F5CFEEFF004EE9D7F9D7F86A77
:1002E00012D76DD7326A336A8EDF4A0EF66E000E71
:1002F000F76E9CDF010E326E336A85DF5C0EF66EA0
:10030000000EF76E93DF020E326EFA0E336E44DF8C
:10031000322EFBD7180E356E3ADF020E326EFA0E11
:0C032000336E3ADF322EFBD7F5D7030016
:020000040030CA
:0E00000007CC3E1E0087A1000FC00FE00F408E
:00000001FF
;PIC18F4550
;CRC=4D51  CREATED="23-Oct-23 13:40"
