:1000000069EF01F0F76A140FF66E000EF72209008F
:10001000F5501200C0F9A4B0999282F880908883BC
:10002000C6A1868E2E002E002E004E4F204448542E
:1000300031310000444F4320534149204455204C66
:10004000494555204448543131004E4F20445331E6
:100050003842323000003D6A3D5007080EE33CBE96
:1000600002D08D9401D08D84969496908D90969028
:100070008D80D8903C363D2AEFD7120039C03AF037
:1000800038C03BF03AC03CF0E6DF3BC03CF0E3DF79
:100090001200396A386AF2DF396A386AEFDF396A82
:1000A000386AECDF396A386AE9DF95968C8695966E
:1000B0008C9695988C8895988C98959A8C8A959A18
:1000C0008C9A959E8C8E959E8C9E95948C849594FE
:1000D0008C9439683868D2DF39683868CFDF959CEE
:1000E0008C8C959C8C9C81EF00F0FF0E926E3C0EE8
:1000F000936EF10E946E000E966E956E956A8C6AF4
:10010000C8D7F19E056A046AC050C00B0209C06ED0
:10011000C08EC280C150C00B0C09C16E95908C90EE
:10012000B4EF01F03F50016A3E5C03E23EC000F0D4
:100130000CD0006A080E406E3E3600363F50005C20
:10014000D8B0006E0136402EF7D71200036A39503E
:10015000080FE96E000E0320EA6E38C03EF00A0E6A
:100160003F6EE0DF036A0050F2CF3DF0F29E4ADFBF
:100170003DBEF28EEF6E010E395C036A080FE96E28
:10018000000E0320EA6E38C03EF00A0E3F6ECADF52
:1001900001C03EF00A0E3F6EC5DF036A0050F2CF89
:1001A0003DF0F29E2FDF3DBEF28EEF6E3A2C14D062
:1001B000010E395C036A080FE96E000E0320EA6E37
:1001C000EF50C00809E1010E395C036A080FE96EBF
:1001D000000E0320EA6EEF6812000BC03CF03BDF1C
:1001E0000AC03CF038DF09C03CF035DF08C03CF005
:1001F00032DF959C8C9C959C8C8C0DEF01F034C06B
:1002000038F0030E396E010E3A6EA0DF36C038F0BA
:10021000010E396E3A6E9ADFE0D752EF01F004C05A
:100220003AF005C03BF03BC03CF015DF3AC03CF073
:1002300012DF95968C8695968C961200EA6A3B0E94
:10024000E96EEF500DE0060E016E006A002EFED73B
:10025000012EFBD77B0E006E002EFED7EF2EF3D7BC
:1002600012000580DCDF39C03AF03A2A3A06D8B4E9
:1002700003D03B68E3DFFAD738C03BF0DFDF0590FF
:10028000CEDF67EF01F0D650346ED7CF35F0345063
:10029000325C03E13550335C1AE035C033F034C0D2
:1002A00032F0ADD737AE03D035AE0AD002D035BE6E
:1002B0000ED03750355C0BE303E13650345C07E376
:1002C000D76AD66A010E396E2C0E386ECAD7BFEFC8
:1002D00001F0F86AD09EB886080EAF6E020EB06EBE
:1002E000A60EAC6E900EAB6E076A066A2A68220EE6
:1002F0002F6E200E306E319031923194C150C00B70
:100300000F09C16E070EB46E0FD00C4008FF1680A7
:10031000303315031602219092303010082002204D
:100320009096000000000000000EF86E030EF76EBD
:100330000A0EF66E0900F550006E000A13E009007F
:10034000F550016EE8BE05D00F0BEA6E0900F5CF3F
:10035000E9FF01BC090001AC0900F5CFEEFF004E3A
:10036000E9D7F9D7F86AC1D6A80ED56ED76AD66A8A
:10037000336A010E326E376A320E366E84D7FED77C
:02038000030078
:020000040030CA
:0E00000007CC3E1E0087A1000FC00FE00F408E
:00000001FF
;PIC18F4550
;CRC=B2B8  CREATED="25-Sep-23 16:36"
