:1000000084EF01F02E002E002E004E4F2044485465
:1000100031310000444F4320534149204455204C86
:10002000494555204448543131004E4F2044533106
:10003000384232300000476A475007080EE346BE98
:1000400002D08D9401D08D84969496908D90969048
:100050008D80D8904636472AEFD7120042C043F031
:1000600041C044F043C046F0E6DF44C046F0E3DF61
:100070001200426A416AF2DF426A416AEFDF426A75
:10008000416AECDF426A416AE9DF95968C86959673
:100090008C9695988C8895988C98959A8C8A959A38
:1000A0008C9A959E8C8E959E8C9E95948C8495941E
:1000B0008C9442684168D2DF42684168CFDF959CEA
:1000C0008C8C959C8C9C71EF00F0FF0E926E3C0E18
:1000D000936EF10E946E000E966E956E956A8C6A14
:1000E000C8D7F19E056A046AC050C00B0209C06EF1
:1000F000C08EC280C150C00B0C09C16E95908C900F
:10010000DBEF01F042C046F096DF43C046F093DFDC
:1001100044C046F090DF45C046F08DDF95988C884E
:1001200095988C981200030E445E09E3EA6A440E27
:10013000E96EEF5004E001D000D0EF2EFDD7ACEF18
:1001400000F0938681B61BD0062AD8B4072A020E87
:10015000436EF90E446EE7D7432EFBD74250075C3F
:100160000AE303E14150065C06E3076A066A010EF2
:10017000016E07D003D0000E016E03D002D0000E36
:10018000016E14EF01F004C043F005C044F044C018
:1001900046F051DF43C046F04EDF95968C8695962B
:1001A0008C961200EA6A440EE96EEF500DE0060EDE
:1001B000016E006A002EFED7012EFBD77B0E006E6B
:1001C000002EFED7EF2EF3D712000580DCDF42C0F1
:1001D00043F0432A4306D8B403D04468E3DFFAD798
:1001E00041C044F0DFDF0590CEDF29EF01F0938AB4
:1001F00081BA0CD0318840C041F0411E426A436A46
:1002000040C044F041C045F07DDF23D0938881B8E1
:1002100007D03198426A436A446A456A73DF19D04D
:10022000426A140E416E8DD7015213E031A80DD0F1
:100230003176401E40C041F0411E426A436A40C0D0
:1002400044F041C045F05EDF04D0426A640E416E66
:10025000BCD7E0EF01F0E00E0416036A3E50320F07
:10026000E96E000E0320EA6EEF5004128CDF3E2A86
:10027000030E3E1652EF01F0E00E0416036A3E50E4
:10028000320FE96E000E0320EA6EEF5004127BDF9E
:100290003E06030E3E1652EF01F031A602D0DBD728
:1002A00001D0EAD782EF01F0E00E0416036A3E5057
:1002B000360FE96E000E0320EA6EEF50041263DF82
:1002C0003E2A070E3E167BEF01F0E00E0416036A8D
:1002D0003E50360FE96E000E0320EA6EEF50041216
:1002E00052DF3E06070E3E167BEF01F031A602D02C
:1002F000DBD701D0EAD782EF01F031AA02D0CDD707
:1003000001D0F4D7E3EF01F0F86AD09EB886080E6A
:10031000AF6E020EB06EA60EAC6E900EAB6E076A9C
:10032000066A2A68220E2F6E200E306E31903192AE
:1003300031943E6A31963198318A406AC150C00B7F
:100340000F09C16E070EB46E16D00C4008FF168060
:10035000303315031602219092303010082002200D
:100360009096000000000C00321D171B0F1D151782
:1003700013030B090D00000EF86E030EF76E4A0E04
:10038000F66E0900F550006E000A13E00900F55002
:10039000016EE8BE05D00F0BEA6E0900F5CFE9FF4C
:1003A00001BC090001AC0900F5CFEEFF004EE9D712
:1003B000F9D7F86A8AD6140E3F6E3186318A17D77C
:1003C00031A804D09AD73FC044F0ECDEF8D7030040
:020000040030CA
:0E00000007CC3E1E0087A1000FC00FE00F408E
:00000001FF
;PIC18F4550
;CRC=9DFF  CREATED="11-Dec-23 12:47"
