:1000000080EF08F0F76A140FF66E000EF722090071
:10001000F5501200C0F9A4B0999282F880908883BC
:10002000C6A1868EF76A340FF66E000EF72209001D
:10003000F550120080C094D4F76A480FF66E000E97
:10004000F7220900F5501200000102040305010225
:100050002003070306060204030306060203030542
:10006000070307202007070606030305000606040A
:10007000030501010720200700060204030500060E
:1000800002030305F76A940FF66E000EF7220900CB
:10009000F5501200070F1F1F1F1F1F1F1F1F1F00DC
:1000A000000000001C1E1F1F1F1F1F1F000000005C
:1000B000001F1F1F1F1F1F1F1F1F0F071F1F1F1F97
:1000C0001F1F1E1C1F1F1F0000001F1F1F1F1F1FA1
:1000D0001F1F1F1F2E002E002E004E4F204448547D
:1000E00031310000444F4320534149204455204CB6
:1000F000494555204448543131004E4F2044533136
:100100003842323000004F4E20004F4646004C4DE2
:100110003335412042555A5A3A202020204C4D3345
:1001200035420000576A575007080EE356BE02D00A
:100130008D9401D08D84969496908D9096908D801C
:10014000D8905636572AEFD712003FC040F03EC035
:1001500041F040C056F0E6DF41C056F0E3DF120048
:100160003F6A3E6AF2DF3F6A3E6AEFDF3F6A3E6AFD
:10017000ECDF3F6A3E6AE9DF95968C8695968C9611
:1001800095988C8895988C98959A8C8A959A8C9A43
:10019000959E8C8E959E8C9E95948C8495948C9433
:1001A0003F683E68D2DF3F683E68CFDF959C8C8C0D
:1001B000959C8C9CE8EF00F0FF0E926E3C0E936EC7
:1001C000F10E946E000E966E956E956A8C6AC8D785
:1001D000F19E056A046AC050C00B0209C06EC08E51
:1001E000C280C150C00B0C09C16E95908C90D0EFAD
:1001F00008F026C056F096DF27C056F093DF28C0DF
:1002000056F090DF29C056F08DDF95948C8495943C
:100210008C9412EF01F05450286E281E55C029F01E
:10022000291EE7D712002A802AC054F053C055F087
:10023000F2DF2A902AC054F053C055F0ECDF1200D0
:100240002A9452C053F0EFDF1200EA6A4A0EE96EB8
:10025000EF500DE0060E016E006A002EFED7012E53
:10026000FBD77B0E006E002EFED7EF2EF3D71200C9
:100270002A902A922A842A96380E526EE1DF420E84
:10028000006E002EFED700000C0E526ED9DF420E1B
:10029000006E002EFED70000010E526ED1DF020E5E
:1002A0004A6ED3DF060E526ECBDF420E006E002E7A
:1002B000FED70000D2EF08F02A844FC053F0B3DF1E
:1002C0001200400E526EBCDF3E6A3E503F080DE306
:1002D000036A3E50F2CF3FF0F29ED4DE3FBEF28E74
:1002E0003F6E4F6EE9DF3E2AF0D7D4EF08F0036A85
:1002F0004F50F2CF51F0F29E95DE51BEF28E502457
:10030000516E526E9DDF12000900F5520CE0F6CFDF
:1003100046F0F7CF47F0F5CF4FF0CEDF46C0F6FFFF
:1003200047C0F7FFF1D712004F6A0B0E506EDFDFA8
:100330000A0EF66E010EF76EE7DF12008E0E006EEB
:100340004BC001F04AC002F0036A015209E102C049
:1003500001F0026A080E005E015202E1006A08D054
:10036000D89001BE04D0023601360006F9D7019EAE
:100370001200800ED8B24F1A546A556A4BC053F01F
:100380004F50531A4A50D8B4DCD0526E006E4E50C3
:10039000D8B4E0D0525ED8B481D03DE34FC058F01D
:1003A000588E50C057F051C056F0556AD890583208
:1003B000573256325532522EF8D753AE03D05480AE
:1003C000DDD0549052905488EA6A4D0EE96EE9D01F
:1003D000549853BE0AD052A013D0583257325632D6
:1003E0005532002AD8B4C5D00BD058BE0CD0D89006
:1003F00055365636573658360006D8B4BAD0F5D7E3
:10040000548C6BD0549C4BC053F04BAE02D0588EE2
:10041000A9D0589EA7D04EC052F04EC000F04A500E
:10042000525E4BC058F0588E4CC057F04DC056F03D
:10043000556AD8905832573256325532522EF8D724
:1004400053AE03D054829AD054925290548AEA6A9E
:10045000510EE96EA6D0549A53BE0AD052A013D0C2
:100460005832573256325532002AD8B482D00BD087
:1004700058BE0CD0D89055365636573658360006EA
:10048000D8B477D0F5D7548E28D0549E4FC053F0AF
:100490004FAE02D0588E66D0589E64D04FC058F0F0
:1004A000588E50C057F051C056F053AE04D0589EED
:1004B000548464D05494556A5290EA6A4D0EE96EA1
:1004C00070D053BE1CD04BC053F052A006D058324F
:1004D000573256325532002A4CE055AE0BD0562AD0
:1004E00009E1572A07E1582A05E1583257325632B6
:1004F000002A3FE054BC86D754BEC7D71CD0800E1C
:10050000581A58AE04D03AD04FC053F00AD04BC05E
:1005100053F0585206E1575204E1565202E1006A84
:1005200021D058BE08D0D890553656365736583652
:10053000002EF7D71ED053AE02D0588E13D0589E3F
:1005400011D04EC000F04FC058F050C057F051C00D
:1005500056F008D04AC000F04BC058F04CC057F0DD
:100560004DC056F058C001F057C002F056C003F01D
:1005700034D0006A016A026A036A2FD0556A561E97
:10058000571E581E551E552A05E1562A03E1572AC3
:1005900001E1582A54B015D754B256D754B48AD76B
:1005A000B3D7EF50562605E3572A03E1582AD8B4AB
:1005B0005280ED52EF50572603E3582AD8B45280A8
:1005C000ED52EF50EFBE01D0800A5826D8B05280CD
:1005D00054B8FED654BA3FD774D712004A50D8B494
:1005E000A5D0566E4E50D8B4A1D0565E05E37F0E0E
:1005F0005626D8B09BD006D0810E565ED8A096D095
:10060000D8B494D056C000F0016A026A036A556AF1
:100610004BC054F0548E4CC053F04DC052F0190EE4
:10062000566E5150525E0DE2010E535E0AE2545E68
:1006300008E2555E06E2552A542A532A51505226A2
:1006400028D05050535E12E2010E545E0FE2555E08
:100650000DE2552A542A505053265150522619E380
:10066000532A17E1542A15E1552A13D04F50800917
:10067000545E0EE2010E555E0BE2552A4F50800982
:10068000542650505326E9E3542AE7E1552AE5D78A
:100690000380562E01D00BD0D890523653365436A4
:1006A0005536D8900336023601365736BAD757A09A
:1006B00006D0D890013202320332573202D00006FF
:1006C00035E057BE1ED0D890523653365436553684
:1006D0005150525E07E2010E535E04E2545E02E2A4
:1006E000555E1AE35050535E05E2010E545E02E27D
:1006F000555E12E34F508009545E03E2010E555ED1
:100700000BE3032A09E1022A07E1012A05E1002A95
:100710000DE00132023203324BC056F04F50561AF0
:1007200056AE02D0018E06D0019E04D0006A016A46
:10073000026A036A12004434006E0036FC0E001692
:10074000C250C30B0010C26E200E006E002EFED7EA
:1007500000D00000486A476A466A456A496A4350C1
:10076000495C26E2C282C2B2FED7C4CF03F0C3CF37
:100770004AF0C4CF4BF0E2DDD89248C04DF047C0FC
:100780004CF046C04BF045C04AF003C051F002C0E7
:1007900050F001C04FF000C04EF0EBDD03C048F058
:1007A00002C047F001C046F000C045F0492AD7D743
:1007B0004B6A43C04AF0C2DD48C04DF047C04CF020
:1007C00046C04BF045C04AF003C051F002C050F0A3
:1007D00001C04FF000C04EF001DF03C048F002C07E
:1007E00047F001C046F000C045F045C000F046C0EB
:1007F00001F047C002F048C003F012008E0E006EF8
:100800004750005E48C002F049C001F0028E00521D
:1008100009E0D890025202E1015204E002320132B2
:10082000002EF7D748AE05D0011E021E012AD8B40B
:10083000022A12004750D8B471D0006E4B50D8B481
:100840006DD0002604E3810E002668E204D07F0EFE
:10085000005E64E363E048C04FF04C504F1A488E8E
:100860004C8E4A504E02F4CF51F049504D02F4CF15
:1008700003F0F3CF50F04E02F3505126F4505022C3
:10088000000E03224A504D02F3505126F4505022DC
:10089000000E026A0322022248504E02F3505026F4
:1008A000F4500322000E022248504D02F35003265A
:1008B000F4500222000E016A01224A504C02F35009
:1008C0005026F4500322000E0222012249504C020D
:1008D000F3500326F4500222000E012248504C022D
:1008E000F3500226F4500122002A01BE05D05036F2
:1008F0000336023601360006000E50AE0AD0032A37
:1009000002220122015005E1025003E1035001E1FE
:10091000002A4FBE018E4FAE019E04D0006A016ACC
:10092000026A036ADDEF04F046C04DF045C04CF0AA
:1009300044C04BF043C04AF0516A506A4F6A7F0E80
:100940004E6E4CDE03C04AF002C049F001C048F0D0
:1009500000C047F053DF02C02CF001C02BF02CC0C8
:100960004BF02BC04AF0EADCD88246C04DF045C0BF
:100970004CF044C04BF043C04AF003C051F002C0F9
:1009800050F001C04FF000C04EF0F3DC03C046F061
:1009900002C045F001C044F000C043F046C04AF038
:1009A00045C049F044C048F043C047F04E6A4D6A24
:1009B000480E4C6E850E4B6E3DD703C046F002C00C
:1009C00045F001C044F000C043F046C04DF045C0C2
:1009D0004CF044C04BF043C04AF0516A506A4F6A31
:1009E0007F0E4E6EFBDD03C04AF002C049F001C02D
:1009F00048F000C047F002DF02C02EF001C02DF029
:100A000012003EC043F0446A96DE03C042F002C0CA
:100A100041F001C040F000C03FF042C04DF041C085
:100A20004CF040C04BF03FC04AF0AA0E516EF10EA0
:100A3000506E020E4F6E800E4E6ED0DD03C042F03F
:100A400002C041F001C040F000C03FF042C046F09B
:100A500041C045F040C044F03FC043F065DF2CC0CA
:100A600033F02BC032F02EC035F02DC034F0E4EF5F
:100A700008F0016A026A006A036A4E5002E14D50B2
:100A800018E0100E4F6ED8904B364C3600360336B9
:100A90004E50035C02E14D50005C07E34D50005E98
:100AA000D8A003064E50035ED880013602364F2E82
:100AB000EAD71200006A016A4E50D8904FB0002663
:100AC000003201324FB20026003201324FB400260C
:100AD000003201324FB60026003201324FB80026F4
:100AE000003201324FBA0026003201324FBC0026DC
:100AF000003201324FBE0026003201329AEF05F07B
:100B00004BC04FF04CC050F077EC01F04D6A4D50A7
:100B1000050827E34D50030808E1010E4B244E6EF3
:100B20004F6E4CC050F077EC01F04AC04EF0060E0C
:100B30004F6EC0D701504F6A4E6E036A4D504E241F
:100B4000016E4F5003220150F2CF4EF0F29E1CEC8A
:100B500000F04EBEF28E4E6E4F6E5CEC01F04D2AF0
:100B6000D6D7120049C04FF04AC050F077EC01F0E0
:100B70004B6A4B50050811E34B50030808E1010E86
:100B800049244C6E4F6E4AC050F077EC01F0200EB5
:100B90004F6E5CEC01F04B2AECD70FEF06F044C02F
:100BA0004FF045C050F077EC01F043C04CF042C02C
:100BB0004BF04E6A0A0E4D6E5CDF02C04AF001C077
:100BC00049F002C04CF001C04BF04E6A0A0E4D6E67
:100BD00050DF00C047F043C04CF042C04BF04E6ABB
:100BE0000A0E4D6E46DF00C048F0030E4524496EE4
:100BF00048C04AF044C04BF04C6E82DF475208E1D7
:100C0000465206E044C049F045C04AF0ABD707D091
:100C100047C04AF044C04BF045C04CF071DF1200B1
:100C20004850016A475C03E247C000F00CD0006AFC
:100C3000080E496E473600364850005CD8B0006E4A
:100C40000136492EF7D7120044C04FF045C050F08E
:100C500077EC01F0D60EF66E000EF76E84EC01F024
:100C600043C047F00A0E486EDBDF01C047F00A0EB2
:100C7000486ED6DF300E0024466E4F6E5CEC01F0FD
:100C800043C047F00A0E486ECBDF300E0024466E9C
:100C90004F6E5CEC01F012003250365C03E13350D1
:100CA000375C10E033C037F032C036F040520AE013
:100CB00033C043F032C042F03EC044F03FC045F084
:100CC000466A6DDF415209E0060E3F24426E34C091
:100CD00043F03EC044F0456EB7DFEAEF08F0036A28
:100CE0004150080FE96E000E0320EA6E40C047F045
:100CF0000A0E486E95DF036A0050F2CF45F0F29E6F
:100D000002EC00F045BEF28EEF6E010E415C036A0C
:100D1000080FE96E000E0320EA6E40C047F00A0E8D
:100D2000486E7EDF01C047F00A0E486E79DF036A25
:100D30000050F2CF45F0F29E02EC00F045BEF28E7C
:100D4000EF6E422C14D0010E415C036A080FE96E6D
:100D5000000E0320EA6EEF50C00809E1010E415C6D
:100D6000036A080FE96E000E0320EA6EEF681200B6
:100D70000BC056F092EC00F00AC056F092EC00F076
:100D800009C056F092EC00F008C056F092EC00F06A
:100D9000959C8C9C959C8C8C12003F5207E032C035
:100DA00040F03EC041F0426A9ADFE2DFEEEF08F029
:100DB0003EC043F0010E446EBEDC03C042F002C0F0
:100DC00041F001C040F000C03FF042C04DF041C0D2
:100DD0004CF040C04BF03FC04AF0AA0E516EF10EED
:100DE000506E020E4F6E800E4E6EEEEC02F003C09F
:100DF00042F002C041F001C040F000C03FF042C0EC
:100E000046F041C045F040C044F03FC043F08CDDA7
:100E10002CC039F02BC038F02EC03BF02DC03AF07A
:100E2000F1EF08F038503C5C03E139503D5C10E0D4
:100E300039C03DF038C03CF040520AE039C043F0C0
:100E400038C042F03EC044F03FC045F0466AA7DEDD
:100E5000415209E0060E3F24426E3AC043F03EC0C4
:100E600044F0456EF1DEF9EF08F03F5207E038C07C
:100E700040F03EC041F0426A32DF7ADFFEEF08F018
:100E800004C049F005C04AF04AC056F092EC00F0A8
:100E900049C056F092EC00F095968C8695968C960B
:100EA00012000580EDDF12000594EADF12000590C4
:100EB000E7DF12000584E4DF12000580E1DF48C0AF
:100EC00049F0492A4906D8B404D04A6825EC01F013
:100ED000F9D747C04AF025EC01F00590D1DF1200A8
:100EE000445203E143502F5C08E231B006D0318018
:100EF000319431B2D6DFD8DF1BD0445209E12F50F4
:100F0000435C06E231A004D0319031B2D0DF10D082
:100F100044520EE13050435C0BE231B009D031B4A1
:100F200007D0C8DF3184010E486E2C0E476EC5DF36
:100F30002DEF08F0445203E143502F5C0DE246527E
:100F400003E145502F5C08E231B006D03180319486
:100F500031B2A7DFA9DF25D044520EE12F50435C08
:100F60000BE2465209E12F50455C06E231A004D065
:100F7000319031B29CDF15D0445213E13050435CC4
:100F800010E246520EE13050455C0BE231B009D020
:100F900031B407D08FDF3184010E486E2C0E476EBE
:100FA0008CDF2DEF08F0445208E143502F5C05E33D
:100FB000465203E145502F5C08E231B006D0318043
:100FC000319431B26EDF70DF25D044520EE12F50E4
:100FD000435C0BE2465209E12F50455C06E231A02A
:100FE00004D0319031B263DF15D0445203E1305068
:100FF000435C05E346520EE13050455C0BE231B0F4
:1010000009D031B407D056DF3184010E486E2C0E62
:10101000476E53DF2DEF08F0422C06D03FC044F05E
:101020003EC043F05DD719D0425002080AE13FC0EC
:1010300044F03EC043F041C046F040C045F07AD78E
:101040000CD04250030809E13FC044F03EC043F0D9
:1010500041C046F040C045F0A6D709EF09F0030EA5
:10106000415E09E3EA6A410EE96EEF5004E001D007
:1010700000D0EF2EFDD748EF08F0938481B41BD049
:10108000062AD8B4072A020E406EF90E416EE7D741
:10109000402EFBD73F50075C0AE303E13E50065C5D
:1010A00006E3076A066A010E016E07D003D0000E40
:1010B000016E03D002D0000E016E70EF08F04F6A8F
:1010C0000B0E506E77EC01F0060EF66E010EF76E09
:1010D00084EC01F07AEF08F03F6A320E3E6ECDD715
:1010E00001520CE0317231A202D0E9D703D094EC66
:1010F00001F0DDDEC80E4A6E25EC01F00AEF09F0C2
:10110000F86AD09EB886080EAF6E020EB06EA60EBC
:10111000AC6E900EAB6E076A066A2A68220E2F6EBE
:10112000200E306E319031923194376A366A3D6AC2
:101130003C6AC150C00B0F09C16E070EB46E0FD0D0
:101140000C4008FF168030331503160221909230B0
:101150003010082002209096000000000000000ED1
:10116000F86E110EF76E400EF66E0900F550006E27
:10117000000A13E00900F550016EE8BE05D00F0B20
:10118000EA6E0900F5CFE9FF01BC090001AC0900D6
:10119000F5CFEEFF004EE9D7F9D7F86ADCEF00F0A3
:1011A00038EF01F061EF01F04F6A506A77EC01F01F
:1011B0000E0EF66E010EF76E84EC01F0319294EC97
:1011C00001F0640E3E6E1DD4010E3E6E3F6A406E0D
:1011D000416E62D5010E3E6E3F6EDFD5640E3E6EEF
:1011E000E7D5010E3E6E0A0E3F6E010E406E416E57
:1011F00019D6030E3E6E010E3F6E37D633C03FF058
:1012000032C03EF039C041F038C040F0020E426EAC
:0812100003D762D7D6D7030013
:020000040030CA
:0E00000007CC3E1E0087A1000FC00FE00F408E
:00000001FF
;PIC18F4550
;CRC=BBFD  CREATED="27-Nov-23 14:56"
