:04000000CDEF03F04D
:08000800046ED8CF05F0E0CF33
:1000100006F00001E9CF0CF0EACF07F0E1CF08F0DD
:10002000E2CF09F0D9CF0AF0DACF0BF0F3CF12F01C
:10003000F4CF13F0FACF14F000C00EF001C00FF0AF
:1000400002C010F003C011F0A0A22AEF00F0A1B28C
:100050009AEF00F00EC000F00FC001F010C002F0E7
:1000600011C003F00CC0E9FF07C0EAFF078E08C00B
:10007000E1FF09C0E2FF0AC0D9FF0BC0DAFF12C0DE
:10008000F3FF13C0F4FF14C0FAFF045006C0E0FFF2
:1000900005C0D8FF1000F2CF0DF0F29EF76AB00F46
:1000A000F66E000EF7220900F5500DBEF28E12001A
:1000B000C0F9A4B0999282F880908883C6A1868EF8
:1000C000F2CF0DF0F29EF76ADA0FF66E000EF7220D
:1000D0000900F5500DBEF28E12003F7FBFFFF2CF38
:1000E0000DF0F29EF76AF80FF66E000EF722090087
:1000F000F5500DBEF28E12007FBFDFEFF7FBFDFE65
:10010000FF002E002E002E004E4F20444854313167
:100110000000444F4320534149204455204C494559
:1001200055204448543131004E4F20445331384219
:1001300032300000472A0B0EB36EDC0EB26EA19275
:100140002AEF00F0676B675107080EE366BF02D025
:100150008D9401D08D84969496908D9096908D80FC
:10016000D8906637672BEFD7120053C054F052C0B7
:1001700055F054C066F0E6DF55C066F0E3DF1200CC
:10018000536A526AF2DF536A526AEFDF536A526A65
:10019000ECDF536A526AE9DF95968C8695968C96C9
:1001A00095988C8895988C98959A8C8A959A8C9A23
:1001B000959E8C8E959E8C9E95948C8495948C9413
:1001C00053685268D2DF53685268CFDF959C8C8C9D
:1001D000959C8C9CF8EF00F0FF0E926E3C0E936E97
:1001E000F10E946E000E966E956E956A8C6AC8D765
:1001F000F19E176A166AC050C00B0209C06EC08E0D
:10020000C280C150C00B0C09C16E95908C901BEF41
:1002100004F05950016A585C03E258C000F00CD059
:10022000006A080E5A6E583600365950005CD8B035
:10023000006E01365A2EF7D71200036A53501E0F74
:10024000E96E000E0320EA6E52C058F00A0E596E95
:10025000E0DF036A0050F2CF57F0F29E1CDF57BE7A
:10026000F28EEF6E010E5324036A1E0FE96E000E2C
:100270000320EA6E52C058F00A0E596ECADF01C060
:1002800058F00A0E596EC5DF036A0050F2CF57F0DE
:10029000F29E01DF57BEF28EEF6E542C14D0010E89
:1002A0005324036A1E0FE96E000E0320EA6EEF501E
:1002B000C00809E1010E5324036A1E0FE96E000E07
:1002C0000320EA6EEF68120046C052F0536A546A87
:1002D000B4DF45C052F0030E536E546AAEDF44C023
:1002E00052F0060E536E546AA8DF12004A6A4B6A37
:1002F0004C6A4D6A4E6A4F6A516A496A446A466A54
:10030000456AE2DF1200556855C054F0566A5650EF
:10031000030826E3036A5650F2CF57F0F29ED0DE70
:1003200057BEF28E936A8A6E938481B404D0030E12
:10033000556E16D013D0938681B604D0020E556E3A
:100340000FD00CD0938881B804D0010E556E08D020
:1003500005D0938A81BA02D0556A02D0562AD7D7DF
:10036000553C01D005D05650040DF3505524546E21
:1003700054C001F0D0EF01F0EA6A540EE96EEF507C
:100380000DE0060E016E006A002EFED7012EFBD78F
:100390007B0E006E002EFED7EF2EF3D71200B3D7E0
:1003A00001C053F0533C01D015D0182AD8B4192AF3
:1003B000010E546EE1DF195203E15250185C06E35E
:1003C000196A186A53C001F007D003D0FF0E016EFE
:1003D00003D002D0FF0E016E120062C066F0B2DEE2
:1003E00063C066F0AFDE64C066F0ACDE65C066F088
:1003F000A9DE95988C8895988C9810EF02F05BC0D8
:100400005EF05AC05FF05DC060F05CC061F05EC03D
:1004100062F05FC063F060C064F061C065F0DDD77A
:1004200023EF02F054C056F055C057F053C059F0B6
:1004300052C058F057C05BF056C05AF059C05DF03A
:1004400058C05CF0DCD712001DC066F07BDE1CC01B
:1004500066F078DE1BC066F075DE1AC066F072DEEC
:10046000959C8C9C959C8C8C73EF03F0512A515079
:10047000050801E2516A120016C053F017C054F08B
:1004800054C066F05FDE53C066F05CDE95968C86E5
:1004900095968C9612001780EFDF8DEF02F0036ABD
:1004A0005550F2CF57F0F29E1ADE57BEF28E016E13
:1004B000576E571E57C066F045DE56C057F0571EA0
:1004C00057C066F03FDE959A8C8A959A8C9A1200F6
:1004D000080E556E5668E3DF85EF02F0536A536AE3
:1004E0005350070814E3036A53501E0FE96E000EC1
:1004F0000320EA6EEFCF54F053C055F054C056F0CD
:10050000CEDF010E546E38DFE3D7532AE9D712004D
:100510001790B2DF95EF02F0BED7526A525014081E
:1005200003E3DCDF522AFAD7F3D71200515207E176
:100530005050020804E350C04AF098DF13D0512C09
:1005400010D04A50010804E350C04BF08FDF08D0B0
:100550005050030804E350C04BF088DF01D0DCDFCB
:1005600001D0DADFEEEF02F05150020809E15050FD
:10057000050804E350C04CF079DF01D0CDDF08D08E
:100580005150030804E150C04DF070DF01D0C4DFCA
:10059000EEEF02F05150040809E15050050804E361
:1005A00050C04EF063DF01D0B7DF08D051500508CE
:1005B00004E150C04FF05ADF01D0AEDFEEEF02F0A1
:1005C0005150010802E3B2D709D05150030802E3A9
:1005D000CBD704D051500508D8B0DCD74E500A0D07
:1005E000F3504F24466E4C500A0DF3504D24456E87
:1005F0004A500A0DF3504B24446E8DEF03F0036A0A
:1006000053501A0FE96E000E0320EA6E52C058F0E4
:100610000A0E596EFEDD036A0050F2CF57F0F29ECB
:100620003ADD57BEF28EEF6E010E535C036A1A0F6D
:10063000E96E000E0320EA6E52C058F00A0E596EA1
:10064000E8DD01C058F00A0E596EE3DD036A005080
:10065000F2CF57F0F29E1FDD57BEF28EEF6E542C94
:1006600014D0010E535C036A1A0FE96E000E0320CA
:10067000EA6EEF50C00809E1010E535C036A1A0FDD
:10068000E96E000E0320EA6EEF68A1EF03F051520D
:1006900002E1256817D0512C02D0246813D05150A4
:1006A000020802E122680ED05150030802E12168DD
:1006B00009D05150040802E11F6804D051500508C8
:1006C00001E11E68A4EF03F0556A54685368526A4A
:1006D000A9DE036A5150F2CF52F0F29EDCDC52BE2A
:1006E000F28E1D6EB1D6280E526E59DE01C050F04A
:1006F000503C01D013D0036A5050F2CF52F0F29E1A
:10070000CADC52BEF28E1A6E50500C0802E1EEDDC9
:1007100004D050500908D8B053D7496A47BE11D009
:10072000475009080EE2476A49BE03D049500B08FA
:1007300008E3492A49C052F0020E536E010E546E6E
:100740005ED74752D8B4A3D747500508D8B4BCDD0C
:10075000C5DE50500F0805E049BEBBD74950090817
:10076000B8E2556A546A536A526A5CDE476A39EFE6
:1007700004F00A0E475E462A46503C080BE1466AE2
:10078000452A45503C0806E1456A442A4450180869
:1007900001E1446A99DD3CEF04F0F86AD09E078ECF
:1007A000B886080EAF6E020EB06EA60EAC6E900E3E
:1007B000AB6E196A186A3C68220E416E200E426EBA
:1007C000439043924394496A516AC150C00B0F0948
:1007D000C16E070EB46E0FD00C401AFF1680303376
:1007E00015031602219092303010082002209096B6
:1007F000000000000000000EF86E070EF76ED80E25
:10080000F66E0900F550006E000A13E00900F5507D
:10081000016EE8BE05D00F0BEA6E0900F5CFE9FFC7
:1008200001BC090001AC0900F5CFEEFF004EE9D78D
:10083000F9D7F86AD1D4B50EB16E0B0EB36EDC0EDB
:10084000B26EC00EF212A082466A476A456A446AD6
:10085000486A4CDD47BE03D0475009080CE30A0E36
:10086000526E9DDD01C050F050500E0802E13EDD99
:0C0870002BD734DE01D07DD7EDD703007C
:020000040030CA
:0E00000007CC3E1E0087A1000FC00FE00F408E
:00000001FF
;PIC18F4550
;CRC=C607  CREATED="09-Oct-23 16:00"
