:10000000DDEF00F0F76A140FF66E000EF72209001C
:10001000F55012007FBFDFEFF7FBFDFEFF002E0063
:100020002E002E004E4F2044485431310000444FE2
:100030004320534149204455204C494555204448CC
:10004000543131004E4F2044533138423230000099
:10005000386A385007080EE337BE02D08D9401D0BD
:100060008D84969496908D9096908D80D89037360A
:10007000382AEFD7120033C034F032C035F034C024
:1000800037F0E6DF35C037F0E3DF1200336A326A5B
:10009000F2DF336A326AEFDF336A326AECDF336AE7
:1000A000326AE9DF95968C8695968C9695988C8821
:1000B00095988C98959A8C8A959A8C9A959E8C8E08
:1000C000959E8C9E95948C8495948C94336832681C
:1000D000D2DF33683268CFDF959C8C8C959C8C9CEA
:1000E0007EEF00F0FF0E926E3C0E936EF10E946E5A
:1000F000000E966E956E956A8C6AC8D7F19E056A59
:10010000046AC050C00B0209C06EC08EC280C150CC
:10011000C00B0C09C16E95908C9028EF01F0036A1A
:100120003450F2CF36F0F29E6DDF36BEF28E016EA5
:10013000366E361E36C037F08BDF35C036F0361ED1
:1001400036C037F085DF959A8C8A959A8C9A120082
:10015000EA6A330EE96EEF500DE0060E016E006A9A
:10016000002EFED7012EFBD77B0E006E002EFED791
:10017000EF2EF3D7D8EF00F0080E346E3568CFDFDE
:10018000D9EF00F0326A326A3250070814E3036A8A
:1001900032500C0FE96E000E0320EA6EEFCF33F001
:1001A00032C034F033C035F0BADF010E336ED0D731
:1001B000E3D7322AE9D739EF01F0F86AD09EB88642
:1001C000080EAF6E020EB06EA60EAC6E900EAB6E49
:1001D000076A066A2A68220E2F6E200E306E319052
:1001E00031923194C150C00B0F09C16E070EB46E2D
:1001F0000FD00C4008FF16803033150316022190F3
:10020000923030100820022090960000000000007C
:10021000000EF86E010EF76EF20EF66E0900F55044
:10022000006E000A13E00900F550016EE8BE05D02B
:100230000F0BEA6E0900F5CFE9FF01BC090001AC24
:100240000900F5CFEEFF004EE9D7F9D7F86A4AD793
:10025000C00E0C6EF90E0D6EA40E0E6EB00E0F6E6B
:10026000990E106E920E116E820E126EF80E136EB3
:0602700089D7FED7030050
:020000040030CA
:0E00000007CC3E1E0087A1000FC00FE00F408E
:00000001FF
;PIC18F4550
;CRC=1F84  CREATED="29-Oct-23 15:19"
