:1000000002EF02F0F76A140FF66E000EF7220900F5
:10001000F5501200C0F9A4B0999282F880908883BC
:10002000C6A1868EF76A340FF66E000EF72209001D
:10003000F55012003F7FBFFF2E002E002E004E4FC6
:100040002044485431310000444F4320534149205B
:100050004455204C494555204448543131004E4FB9
:10006000204453313842323000004B6A4B5007086D
:100070000EE34ABE02D08D9401D08D849694969062
:100080008D9096908D80D8904A364B2AEFD71200EB
:1000900037C038F036C039F038C04AF0E6DF39C032
:1000A0004AF0E3DF1200376A366AF2DF376A366AEF
:1000B000EFDF376A366AECDF376A366AE9DF959632
:1000C0008C8695968C9695988C8895988C98959A10
:1000D0008C8A959A8C9A959E8C8E959E8C9E9594E2
:1000E0008C8495948C9437683668D2DF376836688C
:1000F000CFDF959C8C8C959C8C9C8BEF00F0FF0E39
:10010000926E3C0E936EF10E946E000E966E956E8E
:10011000956A8C6AC8D7F19E056A046AC050C00B04
:100120000209C06EC08EC280C150C00B0C09C16EE6
:1001300095908C904EEF02F0006A016A3650D8908C
:1001400037B000260032013237B2002600320132C9
:1001500037B400260032013237B6002600320132B1
:1001600037B800260032013237BA00260032013299
:1001700037BC00260032013237BE00260032013281
:1001800035EF01F03D50016A3C5C03E23CC000F0F9
:100190000CD0006A080E3E6E3C3600363D50005CC6
:1001A000D8B0006E01363E2EF7D71200036A3750E2
:1001B000080FE96E000E0320EA6E36C03CF00A0E0E
:1001C0003D6EE0DF036A0050F2CF3BF0F29E1ADF93
:1001D0003BBEF28EEF6E010E375C036A080FE96ECC
:1001E000000E0320EA6E36C03CF00A0E3D6ECADFF8
:1001F00001C03CF00A0E3D6EC5DF036A0050F2CF2D
:100200003BF0F29EFFDE3BBEF28EEF6E382C14D038
:10021000010E375C036A080FE96E000E0320EA6ED8
:10022000EF50C00809E1010E375C036A080FE96E60
:10023000000E0320EA6EEF683FEF01F00BC04AF0BA
:1002400014DF0AC04AF011DF09C04AF00EDF08C00F
:100250004AF00BDF959C8C9C959C8C8C40EF01F0B8
:1002600034C036F00A0E376E67D733500124356E2E
:1002700035C036F0030E376E010E386E97D7DED7D5
:100280001200396839C038F03A6A3A50030826E358
:10029000036A3A50F2CF3BF0F29EC4DE3BBEF28ED0
:1002A000936A8A6E938481B404D0030E396E16D09B
:1002B00013D0938681B604D0020E396E0FD00CD0C5
:1002C000938881B804D0010E396E08D005D0938A86
:1002D00081BA02D0396A02D03A2AD7D7393C01D044
:1002E00005D03A50040DF3503924386E38C001F06F
:1002F0001200EA6A380EE96EEF500DE0060E016E4C
:10030000006A002EFED7012EFBD77B0E006E002E5A
:10031000FED7EF2EF3D71200B4DF01C036F0363C23
:1003200001D00FD0140E386EE4DFABDF01C036F021
:10033000050E386EDEDFA5DF01C037F03650375CC2
:10034000F7E036C001F0DDEF01F046C04AF08DDE87
:1003500047C04AF08ADE48C04AF087DE49C04AF00A
:1003600084DE95988C8895988C98C8EF01F03FC0F2
:1003700042F03EC043F041C044F040C045F042C0AE
:1003800046F043C047F044C048F045C049F0DDD7CF
:10039000DBEF01F038C03AF039C03BF037C03DF038
:1003A00036C03CF03BC03FF03AC03EF03DC041F0AB
:1003B0003CC040F0DCD71200AFD701C032F0325061
:1003C000090806E331A604D033C034F032C033F05C
:1003D00032500C0802E1336A346A32500F0806E1E9
:1003E0003186396A38683768366AD4DF32500E0889
:1003F00006E13196396A386A376A366ACBDF30DF10
:1004000052EF02F0F86AD09EB886080EAF6E020E68
:10041000B06EA60EAC6E900EAB6E076A066A2A68C6
:10042000220E2F6E200E306E319031923194319623
:10043000C150C00B0F09C16E070EB46E0FD00C4037
:1004400008FF1680303315031602219092303010C9
:10045000082002209096000000000000000EF86EB8
:10046000040EF76E3E0EF66E0900F550006E000A9F
:1004700013E00900F550016EE8BE05D00F0BEA6EDF
:100480000900F5CFE9FF01BC090001AC0900F5CF77
:10049000EEFF004EE9D7F9D7F86A31D6336A346AED
:0804A000DFDE8AD7FED703005E
:020000040030CA
:0E00000007CC3E1E0087A1000FC00FE00F408E
:00000001FF
;PIC18F4550
;CRC=A925  CREATED="25-Sep-23 16:19"
