:1000000094EF02F0F76A140FF66E000EF722090063
:10001000F5501200C0F9A4B0999282F880908883BC
:10002000C6A1868EF76A340FF66E000EF72209001D
:10003000F55012007FBFDFEFF7FBFDFEFF002E0043
:100040002E002E004E4F2044485431310000444FC2
:100050004320534149204455204C494555204448AC
:10006000543131004E4F2044533138423230000079
:10007000496A495007080EE348BE02D08D9401D06A
:100080008D84969496908D9096908D80D8904836D9
:10009000492AEFD712003DC03EF03CC03FF03EC0C1
:1000A00048F0E6DF3FC048F0E3DF12003D6A3C6AFB
:1000B000F2DF3D6A3C6AEFDF3D6A3C6AECDF3D6A95
:1000C0003C6AE9DF95968C8695968C9695988C88F7
:1000D00095988C98959A8C8A959A8C9A959E8C8EE8
:1000E000959E8C9E95948C8495948C943D683C68E8
:1000F000D2DF3D683C68CFDF959C8C8C959C8C9CB6
:100100008EEF00F0FF0E926E3C0E936EF10E946E29
:10011000000E966E956E956A8C6AC8D7F19E056A38
:10012000046AC050C00B0209C06EC08EC280C150AC
:10013000C00B0C09C16E95908C90E9EF02F0030E94
:100140003F5E09E3EA6A3F0EE96EEF5004E001D03A
:1001500000D0EF2EFDD71200938A81BA1BD0062A59
:10016000D8B4072A020E3E6EF90E3F6EE8DF3E2E2F
:10017000FBD73D50075C0AE303E13C50065C06E315
:10018000076A066A010E016E07D003D0000E016EE9
:1001900003D002D0000E016EAFEF01F04350016AB0
:1001A000425C03E242C000F00CD0006A080E446ECC
:1001B000423600364350005CD8B0006E0136442E03
:1001C000F7D71200036A3D500C0FE96E000E0320B2
:1001D000EA6E3CC042F00A0E436EE0DF036A005054
:1001E000F2CF41F0F29E0EDF41BEF28EEF6E010EB5
:1001F0003D24036A0C0FE96E000E0320EA6E3CC03A
:1002000042F00A0E436ECADF01C042F00A0E436E8E
:10021000C5DF036A0050F2CF41F0F29EF3DE41BE2B
:10022000F28EEF6E3E2C14D0010E3D24036A0C0FAB
:10023000E96E000E0320EA6EEF50C00809E1010EDE
:100240003D24036A0C0FE96E000E0320EA6EEF688E
:100250001200036A3E50F2CF40F0F29EE3DE40BE51
:10026000F28E016E406E401E40C048F001DF3FC07C
:1002700040F0401E40C048F0FBDE959A8C8A959A6B
:100280008C9A1200EA6A400EE96EEF500DE0060EFD
:10029000016E006A002EFED7012EFBD77B0E006E8A
:1002A000002EFED7EF2EF3D71200080E3E6E3F68E9
:1002B000D0DF72EF01F03C6A3C6A3C50070814E35F
:1002C000036A3C500C0FE96E000E0320EA6EEFCF7C
:1002D0003DF03CC03EF03DC03FF0BBDF010E406E44
:1002E000D1DFE3D73C2AE9D788EF01F033C03CF0F7
:1002F000030E3D6E3E6A66DF3AC03CF03D6A3E6AE0
:1003000061DF34C03CF0060E3D6E3E6A5BDFD3D742
:100310001200938681B61BD0062AD8B4072A020E93
:100320003E6EF90E3F6E0BDF3E2EFBD73D50075C55
:100330000AE303E13C50065C06E3076A066A010E25
:10034000016E07D003D0000E016E03D002D0000E64
:10035000016EC3EF01F03D6A0A0E3C6EFDD6012C22
:100360000ED037BE05D0375207E13650130804E3EC
:10037000362AD8B4372A02D0376A366AB7DF3D6AE0
:100380000A0E3C6EC6D7012C14D039BE0AD03952A1
:1003900003E13850280805E23850D8B43906380649
:1003A00003D0396A3C0E386E39C035F038C034F0AD
:1003B0009DDFF0EF02F0938881B81DD0140E406EDF
:1003C00061DF938881B814D03C5203E0938881A800
:1003D000FDD73EC03FF03F2A3F06D8B403D0406867
:1003E00051DFFAD73DC040F04DDF010E016E05D060
:1003F000000E016E02D0000E016E04EF02F0010E3D
:100400003C6E3E6A3D6AD7D7012C01D03176F1EFC0
:1004100002F044C048F02CDE45C048F029DE46C05A
:1004200048F026DE47C048F023DE95988C889598E2
:100430008C982CEF02F03DC040F03CC041F03FC032
:1004400042F03EC043F040C044F041C045F042C0DD
:1004500046F043C047F0DDD7120031B606D0D56A6A
:100460003D6A3C6A3F6A3E6AE6DF31A607D0A80EC5
:10047000D56E3D6A3C6A3F6A3E68DDDFF2EF02F00E
:1004800004C03EF005C03FF03FC048F0F1DD3EC083
:1004900048F0EEDD95968C8695968C961200058038
:1004A000EFDF3DC03EF03E2A3E06D8B403D04068A0
:1004B000E9DEFAD73CC040F0E5DE0590E1DF91EFE0
:1004C00002F036503A5C03E137503B5C08E037C03D
:1004D0003BF036C03AF03BC0D7FF3AC0D6FFD6500B
:1004E000336E3350325C1EE033C032F0036A335057
:1004F000006EE8BE0306016E35AE03D003AE0AD02F
:1005000002D003BE0ED03550035C0BE303E1345040
:10051000015C07E3D76AD66A010E3D6E2C0E3C6E75
:10052000BED7E4DEF3EF02F0F86AD09EB886080E7C
:10053000AF6E020EB06EA60EAC6E900EAB6E076A7A
:10054000066A2A68220E2F6E200E306E319031928C
:100550003194356A3C0E346E376A366A396A386EC1
:100560003B6A3A6A3196C150C00B0F09C16E070E43
:10057000B46E0FD00C4008FF1680303315031602FE
:100580002190923030100820022090960000000048
:100590000000000EF86E050EF76E740EF66E090080
:1005A000F550006E000A13E00900F550016EE8BE38
:1005B00005D00F0BEA6E0900F5CFE9FF01BC090079
:1005C00001AC0900F5CFEEFF004EE9D7F9D7F86A84
:1005D00099D5A80ED56ED76AD66A010E326EBBD6F3
:0C05E0000ED73BD76ED782DEFAD703009F
:020000040030CA
:0E00000007CC3E1E0087A1000FC00FE00F408E
:00000001FF
;PIC18F4550
;CRC=0208  CREATED="04-Oct-23 13:23"
