:10000000B3EF03F0F76A140FF66E000EF722090043
:10001000F5501200C0F9A4B0999282F880908883BC
:10002000C6A1868EF76A340FF66E000EF72209001D
:10003000F55012007FBFDFEFF7FBFDFEFF002E0043
:100040002E002E004E4F2044485431310000444FC2
:100050004320534149204455204C494555204448AC
:10006000543131004E4F2044533138423230000079
:10007000486A485007080EE347BE02D08D9401D06D
:100080008D84969496908D9096908D80D8904736DA
:10009000482AEFD712003CC03DF03BC03EF03DC0C7
:1000A00047F0E6DF3EC047F0E3DF12003C6A3B6A00
:1000B000F2DF3C6A3B6AEFDF3C6A3B6AECDF3C6A9A
:1000C0003B6AE9DF95968C8695968C9695988C88F8
:1000D00095988C98959A8C8A959A8C9A959E8C8EE8
:1000E000959E8C9E95948C8495948C943C683B68EA
:1000F000D2DF3C683B68CFDF959C8C8C959C8C9CB8
:100100008EEF00F0FF0E926E3C0E936EF10E946E29
:10011000000E966E956E956A8C6AC8D7F19E056A38
:10012000046AC050C00B0209C06EC08EC280C150AC
:10013000C00B0C09C16E95908C9003EF04F004C0C5
:100140003BF005C03CF03CC047F092DF3BC047F0BD
:100150008FDF95968C8695968C96B1EF00F0048A89
:10016000EED704EF04F0F00EBA1694948B940C0EB4
:10017000BD6EB76AB66A94928B9205EF04F0016A7D
:10018000026A006A036A465002E1455018E0100E08
:10019000476ED89043364436003603364650035CEB
:1001A00002E14550005C07E34550005ED8A003061D
:1001B0004650035ED88001360236472EEAD7120039
:1001C000036A3D500C0FE96E000E0320EA6E3CC03E
:1001D00044F03BC043F0466A0A0E456ED0DF00C0D3
:1001E00041F003C042F003C003F00050F2CF43F0EF
:1001F000F29E08DF43BEF28EEF6E010E3D24036ACD
:100200000C0FE96E000E0320EA6E3CC044F03BC0C8
:1002100043F0466A0A0E456EB2DF02C042F001C0EA
:1002200041F002C044F001C043F0466A0A0E456E38
:10023000A6DF00C041F003C042F003C003F000504D
:10024000F2CF43F0F29EDEDE43BEF28EEF6E020E80
:100250003D24036A0C0FE96E000E0320EA6E3CC0D9
:1002600044F03BC043F0466A640E456E88DF02C02E
:1002700042F001C041F002C044F001C043F0466AC0
:100280000A0E456E7CDF00C041F003C042F003C09F
:1002900003F00050F2CF43F0F29EB4DE43BEF28E84
:1002A000EF6E030E3D24036A0C0FE96E000E03206F
:1002B000EA6E3CC044F03BC043F0030E466EE80ECD
:1002C000456E5DDF02C042F001C041F002C044F063
:1002D00001C043F0466A0A0E456E51DF00C041F08E
:1002E00003C042F003C003F00050F2CF43F0F29E8F
:1002F00089DE43BEF28EEF6E3E2C3CD0030E3D24D1
:10030000036A0C0FE96E000E0320EA6EEF50C0087E
:1003100031E1030E3D24036A0C0FE96E000E032049
:10032000EA6EEF68020E3D24036A0C0FE96E000EC0
:100330000320EA6EEF50C0081DE1020E3D24036A5F
:100340000C0FE96E000E0320EA6EEF68010E3D24EB
:10035000036A0C0FE96E000E0320EA6EEF50C0082E
:1003600009E1010E3D24036A0C0FE96E000E032023
:10037000EA6EEF6820EF02F04250016A415C03E24E
:1003800041C000F00CD0006A080E436E41360036C2
:100390004250005CD8B0006E0136432EF7D71200F1
:1003A000036A3C500C0FE96E000E0320EA6E3BC05E
:1003B00041F00A0E426EE0DF036A0050F2CF40F0D7
:1003C000F29E20DE40BEF28EEF6E010E3C24036AE8
:1003D0000C0FE96E000E0320EA6E3BC041F00A0EDE
:1003E000426ECADF01C041F00A0E426EC5DF036AE9
:1003F0000050F2CF40F0F29E05DE40BEF28EEF6E6E
:100400003D2C14D0010E3C24036A0C0FE96E000E43
:100410000320EA6EEF50C00809E1010E3C24036A94
:100420000C0FE96E000E0320EA6EEF6827EF02F072
:1004300033C03CF032C03BF03D6A010E3E6EC0D688
:1004400034C03BF0050E3C6E010E3D6EA9D7BF0EC9
:10045000106E1200030E3E5E09E3EA6A3E0EE96E7C
:10046000EF5004E001D000D0EF2EFDD71200938AA8
:1004700081BA1BD0062AD8B4072A020E3D6EF90EA7
:100480003E6EE8DF3D2EFBD73C50075C0AE303E1FC
:100490003B50065C06E3076A066A010E016E07D050
:1004A00003D0000E016E03D002D0000E016E90EF5B
:1004B00002F03B503D02F3CF01F0F4CF00F03E02DA
:1004C000F35000263C503D02F3500020026E120013
:1004D00043C047F0CDDD44C047F0CADD45C047F01A
:1004E000C7DD46C047F0C4DD95988C8895988C98F8
:1004F0008BEF02F03CC03FF03BC040F03EC041F00B
:100500003DC042F03FC043F040C044F041C045F020
:1005100042C046F0DDD712003C6A0A0E3B6EA7D7F8
:10052000015236E0355234E13450310831E3342A97
:10053000D8B4352A35C03CF034C03BF03E6A140EC6
:100540003D6EB7DF02C033F001C032F033C002F0BD
:1005500032C001F00232013202320132023201C0F5
:10056000BEFF02320230300B006EBD50CF0B0010C8
:10057000BD6E5EDF318A376A3668396A386837C0DF
:100580003CF036C03BF039C03EF038C03DF0B2DF41
:1005900026EF04F0938681B61BD0062AD8B4072A2A
:1005A000020E3D6EF90E3E6E55DF3D2EFBD73C50E0
:1005B000075C0AE303E13B50065C06E3076A066A50
:1005C000010E016E07D003D0000E016E03D002D0E1
:1005D000000E016EF0EF02F03C6A0A0E3B6EDAD7B5
:1005E00001523AE0345202E1355236E03450D8B488
:1005F0003506340635C03CF034C03BF03E6A140E7C
:100600003D6E57DF02C033F001C032F033C002F05C
:1006100032C001F00232013202320132023201C034
:10062000BEFF02320230300B006EBD50CF0B001007
:10063000BD6EFEDE318A32520FE133520DE1376A70
:10064000366A396A386A37C03CF036C03BF039C088
:100650003EF038C03DF04EDF27EF04F0938881B8BC
:1006600032D031AA30D0319A356A346A35C03CF084
:1006700034C03BF03E6A140E3D6E1BDF02C033F007
:1006800001C032F033C002F032C001F00232013258
:1006900002320132023201C0BEFF02320230300BA0
:1006A000006EBD50CF0B0010BD6E376A366A396AD6
:1006B000386A37C03CF036C03BF039C03EF038C035
:1006C0003DF018DFB5DE28EF04F0036A3D50F2CFAD
:1006D0003FF0F29EA7DC3FBEF28E016E3F6E3F1EE2
:1006E0003FC047F0C5DC3EC03FF03F1E3FC047F073
:1006F000BFDC959A8C8A959A8C9A1200EA6A3C0E15
:10070000E96EEF500DE0060E016E006A002EFED776
:10071000012EFBD77B0E006E002EFED7EF2EF3D7F7
:10072000AEEF03F0080E3D6E3E68CFDFAFEF03F093
:100730003B6A3B6A3B50070814E3036A3B500C0FCB
:10074000E96E000E0320EA6EEFCF3CF03BC03DF0B7
:100750003CC03EF0BADF010E3C6ED0D7E3D73B2A57
:10076000E9D72DEF04F0F86AD09EB886080EAF6E78
:10077000020EB06EA60EAC6E900EAB6E076A066AE5
:100780002A68220E2F6E200E306E319031923194F5
:1007900031963198356A346A319AC150C00B0F09CD
:1007A000C16E070EB46E0FD00C4008FF16803033B8
:1007B00015031602219092303010082002209096E6
:1007C000000000000000000EF86E070EF76EA80E85
:1007D000F66E0900F550006E000A13E00900F550AE
:1007E000016EE8BE05D00F0BEA6E0900F5CFE9FFF8
:1007F00001BC090001AC0900F5CFEEFF004EE9D7BE
:10080000F9D7F86A7FD4ABD4AED4000E0609CA6E0D
:10081000F90ECB6E336A326A356A346A33C002F03D
:1008200032C001F00232013202320132023201C022
:10083000BEFF02320230300B006EBD50CF0B0010F5
:10084000BD6EF6DDBF0E106E319A66D6C5D606D7E0
:100850003A6A3A50010803E36BD73A2AFAD7F5D738
:02086000030093
:020000040030CA
:0E00000007CC3E1E0087A1000FC00FE00F408E
:00000001FF
;PIC18F4550
;CRC=1433  CREATED="11-Dec-23 13:14"
