:100000002FEF03F0F76A140FF66E000EF7220900C7
:10001000F5501200C0F9A4B0999282F880908883BC
:10002000C6A1868EF76A340FF66E000EF72209001D
:10003000F550120080C094D42E002E002E004E4F9A
:100040002044485431310000444F4320534149205B
:100050004455204C494555204448543131004E4FB9
:1000600020445331384232300000766B7651070815
:100070000EE375BF02D08D9401D08D849694969036
:100080008D9096908D80D8907537762BEFD7120093
:100090006BC06CF06AC06DF06CC075F0E6DF6DC0CF
:1000A00075F0E3DF12006B6B6A6BF2DF6B6B6A6BF0
:1000B000EFDF6B6B6A6BECDF6B6B6A6BE9DF95965E
:1000C0008C8695968C9695988C8895988C98959A10
:1000D0008C8A959A8C9A959E8C8E959E8C9E9594E2
:1000E0008C8495948C946B696A69D2DF6B696A69B8
:1000F000CFDF959C8C8C959C8C9C8BEF00F0FF0E39
:10010000926E3C0E936EF10E946E000E966E956E8E
:10011000956A8C6AC8D7F19E056A046AC050C00B04
:100120000209C06EC08EC280C150C00B0C09C16EE6
:1001300095908C9094EF03F026C075F096DF27C061
:1001400075F093DF28C075F090DF29C075F08DDF62
:1001500095948C8495948C94B5EF00F07351286E2F
:10016000281E74C029F0291EE7D712002A802AC051
:1001700073F072C074F0F2DF2A902AC073F072C07C
:1001800074F0ECDF12002A9471C072F0EFDF1200FD
:10019000EA6A6D0EE96EEF500DE0060E016E006A20
:1001A000002EFED7012EFBD77B0E006E002EFED751
:1001B000EF2EF3D712002A902A922A842A96380E1C
:1001C000716FE1DF420E006E002EFED700000C0EB4
:1001D000716FD9DF420E006E002EFED70000010EB7
:1001E000716FD1DF020E6D6FD3DF060E716FCBDF43
:1001F000420E006E002EFED7000095EF03F0036A5A
:100200006E51F2CF70F0F29E0DDF70BFF28E6F254F
:10021000706F716FB8DF12002A846FC072F0A6DFB2
:1002200012006DC003F06CC0E9FF6DC0EAFFEF5231
:100230003CE06B51130802E26B6B6A2B6A510308B6
:1002400001E26A6B6AC06EF06BC06FF0D8DF6DC000
:1002500003F06CC0E9FF6DC0EAFFEF500A0807E148
:100260006A2B6AC06EF06BC06FF0C9DF1AD06DC028
:1002700003F06CC0E9FF6DC0EAFFEF500D0805E127
:100280006E6B6BC06FF0BBDF0CD06DC003F06CC049
:10029000E9FF6DC0EAFFEFCF6EF06EC06FF0BCDF1C
:1002A0006B2B6C2BD8B46D2BBCD712006D516F1912
:1002B000800B716F6DAF05D06C1F6D1F6C2BD8B4A8
:1002C0006D2B6FAF05D06E1F6F1F6E2BD8B46F2BC9
:1002D000016A026A006A036A6F5102E16E5118E016
:1002E000100E706FD8906C376D37003603366F5133
:1002F000035C02E16E51005C07E36E51005ED8A022
:1003000003066F51035ED88001360236702FEAD79C
:1003100071AF05D0011E021E012AD8B4022A1200B4
:10032000020E6E6F120E6F6F6ADF37C06DF036C04F
:100330006CF06F6B0A0E6E6FB9DF02C06BF001C01C
:100340006AF002C06DF001C06CF06F6B0A0E6E6F48
:10035000ADDF00C06AF003C06BF0300E6A27000EFC
:100360006B236AC06FF058DF37C06DF036C06CF099
:100370006F6B0A0E6E6F9ADF00C06AF003C06BF0FD
:10038000300E6A27000E6B236AC06FF045DFB4EFB2
:1003900003F004C06CF005C06DF06DC075F065DE53
:1003A0006CC075F062DE95968C8695968C961200E0
:1003B0000580EFDF6BC06CF06C2B6C07D8B403D0FA
:1003C0006D69E6DEFAD76AC06DF0E2DE0590E1DF26
:1003D000C3EF02F07151016A705D03E270C000F07A
:1003E0000CD0006A080E726F703700367151005CD5
:1003F000D8B0006E0136722FF7D71200036A6B5126
:10040000080FE96E000E0320EA6E6AC070F00A0E53
:10041000716FE0DF036A0050F2CF6FF0F29EF2DD01
:100420006FBFF28EEF6E010E6B5D036A080FE96E0F
:10043000000E0320EA6E6AC070F00A0E716FCADF08
:1004400001C070F00A0E716FC5DF036A0050F2CF71
:100450006FF0F29ED7DD6FBFF28EEF6E6C2D14D071
:10046000010E6B5D036A080FE96E000E0320EA6E51
:10047000EF50C00809E1010E6B5D036A080FE96ED9
:10048000000E0320EA6EEF6812000BC075F0EDDD80
:100490000AC075F0EADD09C075F0E7DD08C075F047
:1004A000E4DD959C8C9C959C8C8C65EF02F034C0AF
:1004B0006AF0030E6B6F010E6C6FA0DF36C06AF03E
:1004C000010E6B6F6C6F9ADFE0D7C4EF02F0010E84
:1004D0006E6F120E6F6F93DE35C06DF034C06CF02E
:1004E0006F6B0A0E6E6FE2DE02C06BF001C06AF045
:1004F00002C06DF001C06CF06F6B0A0E6E6FD6DE3D
:1005000000C06AF003C06BF0300E6A27000E6B2348
:100510006AC06FF081DE35C06DF034C06CF06F6B77
:100520000A0E6E6FC3DE00C06AF003C06BF0300EBF
:100530006A27000E6B236AC06FF06EDEC5EF02F013
:10054000D650346ED7CF35F03450325C03E135509D
:10055000335C1BE035C033F034C032F037AE03D02B
:1005600035AE0AD002D035BE0ED03750355C0BE325
:1005700003E13650345C07E3D76AD66A010E6B6F2D
:100580002C0E6A6F15D793D7A2D7B5EF03F0030EE1
:100590006D5F09E3EA6A6D0EE96EEF5004E001D089
:1005A00000D0EF2EFDD71200938A81BA1BD0062A05
:1005B000D8B4072A020E6C6FF90E6D6FE8DF6C2F4E
:1005C000FBD76B51075C0AE303E16A51065C06E363
:1005D000076A066A010E016E07D003D0000E016E95
:1005E00003D002D0000E016EFAEF02F06B6BFA0E30
:1005F0006A6FDAD7012C06D0A80ED56E35C0D7FFAA
:1006000034C0D6FFB6EF03F0938881B81BD0062A1A
:10061000D8B4072A020E6C6FF90E6D6FB8DF6C2F1D
:10062000FBD76B51075C0AE303E16A51065C06E302
:10063000076A066A010E016E07D003D0000E016E34
:1006400003D002D0000E016E2AEF03F06B6BFA0E9E
:100650006A6FDAD7012C01D0D56AB7EF03F0F86AD8
:10066000D09EB886080EAF6E020EB06EA60EAC6EAF
:10067000900EAB6E076A066A2A68220E2F6E200E55
:10068000306E319031923194C150C00B0F09C16E60
:10069000070EB46E29D00C4008FF168030331503C6
:1006A000160221909230301008200220909600000F
:1006B000000032003844454D2053414E20504841FF
:1006C0004D2044554E472054300047494120545254
:1006D000492044454D3A200047494F492048414E62
:1006E0002044454D3A200000000EF86E060EF76ECD
:1006F000960EF66E0900F550006E000A13E0090030
:10070000F550016EE8BE05D00F0BEA6E0900F5CF7B
:10071000E9FF01BC090001AC0900F5CFEEFF004E76
:10072000E9D7F9D7F86AEBD446D56A6B6B6B6D6B7A
:10073000380E6C6F76DD010E6A6F6B6B6D6B4D0E54
:100740006C6F6FDD020E6A6F6B6B6D6B5B0E6C6FA7
:1007500068DDA80ED56ED76AD66A336A010E326E8E
:10076000376A320E366EDCD5EBD640D76FD7FCD762
:02077000030084
:020000040030CA
:0E00000007CC3E1E0087A1000FC00FE00F408E
:00000001FF
;PIC18F4550
;CRC=FE10  CREATED="30-Oct-23 14:22"
