:04000000F7EF04F022
:08000800046ED8CF05F0E0CF33
:1000100006F00001E9CF0CF0EACF07F0E1CF08F0DD
:10002000E2CF09F0D9CF0AF0DACF0BF0F3CF12F01C
:10003000F4CF13F0FACF14F000C00EF001C00FF0AF
:1000400002C010F003C011F0A0A22AEF00F0A1B28C
:100050008BEF00F00EC000F00FC001F010C002F0F6
:1000600011C003F00CC0E9FF07C0EAFF078E08C00B
:10007000E1FF09C0E2FF0AC0D9FF0BC0DAFF12C0DE
:10008000F3FF13C0F4FF14C0FAFF045006C0E0FFF2
:1000900005C0D8FF1000F2CF0DF0F29EF76AB00F46
:1000A000F66E000EF7220900F5500DBEF28E12001A
:1000B000C0F9A4B0999282F880908883C6A1868EF8
:1000C000F2CF0DF0F29EF76ADA0FF66E000EF7220D
:1000D0000900F5500DBEF28E12007FBFDFEFF7FB77
:1000E000FDFEFF002E002E002E004E4F20444854EF
:1000F00031310000444F4320534149204455204CA6
:10010000494555204448543131004E4F2044533125
:10011000384232300000492A0B0EB36EDC0EB26E4C
:10012000A1922AEF00F0546A545007080EE353BE20
:1001300002D08D9401D08D84969496908D90969057
:100140008D80D8905336542AEFD712004EC04FF00E
:100150004DC050F04FC053F0E6DF50C053F0E3DF26
:1001600012004E6A4D6AF2DF4E6A4D6AEFDF4E6A48
:100170004D6AECDF4E6A4D6AE9DF95968C8695965E
:100180008C9695988C8895988C98959A8C8A959A47
:100190008C9A959E8C8E959E8C9E95948C8495942D
:1001A0008C944E684D68D2DF4E684D68CFDF959CC9
:1001B0008C8C959C8C9CE9EF00F0FF0E926E3C0EAF
:1001C000936EF10E946E000E966E956E956A8C6A23
:1001D000C8D7F19E176A166AC050C00B0209C06EDC
:1001E000C08EC280C150C00B0C09C16E95908C901E
:1001F00044EF05F0080E016E050E006E002EFED7CE
:100200008A929392060E006E002EFED750368A9088
:10021000D8B09380D8A09390938281A2FED7012E6C
:10022000EBD7050E006E002EFED78A929392000047
:100230009380060E006E002EFED7060E006E002E76
:10024000FED7938281A2FED7016A060E006E002EB1
:10025000FED781B001808A9293928A909390120087
:10026000080E526E00C053F09380060E006E002EF2
:10027000FED7938281A2FED781B0D88081A0D8908A
:100280000136050E006E002EFED793928A92522EF2
:10029000EBD79380060E006E002EFED78A90535047
:1002A000D8A493900000938281A2FED7050E006E21
:1002B000002EFED78A929392060E006E002EFED775
:1002C0008A90939012009380050E006E002EFED748
:1002D0009382060E006E002EFED78A909390050E34
:1002E000006E002EFED78A929392D00E506E82DF5F
:1002F000506A80DF9380050E006E002EFED7938239
:10030000060E006E002EFED781A2FED78A90939033
:10031000050E006E002EFED78A929392D10E506E7B
:1003200069DF4E6A4D504E5C0EE2036A4E502F0F4D
:10033000E96E000E0320EA6E010E006E91DF01C02F
:10034000EFFF4E2AEFD7006A8BDF01C04EF093908B
:100350000000938281A2FED7050E006E002EFED70C
:1003600000D000009380050E006E002EFED7120014
:100370009380050E006E002EFED79382060E006E4F
:10038000002EFED78A909390050E006E002EFED7A9
:100390008A929392D00E506E2DDF506A2BDF4E6AF8
:1003A0004E5008081DE34D520DE0036A4E50260FD3
:1003B000E96E000E0320EA6EEFCF4FF04FC050F011
:1003C00019DF0CD0036A4E502F0FE96E000E032088
:1003D000EA6EEFCF4FF04FC050F00CDF4E2AE0D75F
:1003E00093900000938281A2FED7050E006E002E2E
:1003F000FED700D000009380050E006E002EFED7C1
:100400000BEF02F0090E4D6E5EDF37502E5C03E0FD
:10041000010E4D6EADD758EF05F05550016A545C92
:1004200003E254C000F00CD0006A080E566E543639
:1004300000365550005CD8B0006E0136562EF7D706
:100440001200036A4E501A0FE96E000E0320EA6E86
:100450004DC054F00A0E556EE0DF036A0050F2CF33
:1004600052F0F29E18DE52BEF28EEF6E010E4E5C1E
:10047000036A1A0FE96E000E0320EA6E4DC054F0B5
:100480000A0E556ECADF01C054F00A0E556EC5DF64
:10049000036A0050F2CF52F0F29EFDDD52BEF28EA2
:1004A000EF6E4F2C14D0010E4E5C036A1A0FE96EEA
:1004B000000E0320EA6EEF50C00809E1010E4E5C09
:1004C000036A1A0FE96E000E0320EA6EEF6812004D
:1004D0001DC053F028DE1CC053F025DE1BC053F0B6
:1004E00022DE1AC053F01FDE959C8C9C959C8C8C50
:1004F00088EF02F044C04DF0030E4E6E010E4F6EB9
:10050000A0DF46C04DF0010E4E6E4F6E9ADFE0D771
:10051000C6EF02F016C04FF017C050F050C053F0B5
:1005200002DE4FC053F0FFDD95968C8695968C9633
:100530001200EA6A500EE96EEF500DE0060E016EF1
:10054000006A002EFED7012EFBD77B0E006E002E18
:10055000FED7EF2EF3D712001780DCDF4EC04FF02E
:100560004F2A4F06D8B403D05068E3DFFAD74DC006
:1005700050F0DFDF1790CEDFCFEF02F0D650446EA1
:100580004450455C0CE044C045F0B4D74450465C50
:1005900006E2D76AD66A4E6A640E4D6EDDD759EF11
:1005A00005F04A50030802E1256824684A50020811
:1005B00002E1226821684A2C02D01F681E6841EFC0
:1005C00003F0036A4F501E0FE96E000E0320EA6E1F
:1005D0004E500F0B036AF2CF53F0F29E5CDD53BE18
:1005E000F28EEF6E010E4F24036A1E0FE96E000EAD
:1005F0000320EA6E4E38006E0F0E00160050036A9C
:10060000F2CF53F0F29E47DD53BEF28EEF6E502CC8
:1006100014D0010E4F24036A1E0FE96E000E032052
:10062000EA6EEF50C00809E1010E4F24036A1E0F65
:10063000E96E000E0320EA6EEF6812002FC04EF044
:100640004F6A506ABEDF30C04EF0030E4F6E506AE4
:10065000B8DF31C04EF0060E4F6E506AB2DF23682D
:1006600012004A520EE0495208E1938A81AA05D04D
:10067000938681A602D095D704D04950050801E1A0
:10068000DDDF5FEF05F0036A5050F2CF52F0F29ECB
:1006900017DD52BEF28E016E526E521E52C053F0E2
:1006A00042DD51C052F0521E52C053F03CDD959ACB
:1006B0008C8A959A8C9A1200080E506E5168E3DF6E
:1006C00079EF03F04E6A4E6A4E50070814E3036A4E
:1006D0004E501E0FE96E000E0320EA6EEFCF4FF072
:1006E0004EC050F04FC051F0CEDF010E506E21DFF2
:1006F000E3D74E2AE9D71200030E515E09E3EA6AF6
:10070000510EE96EEF5004E001D000D0EF2EFDD77E
:100710001200938881B81BD0182AD8B4192A020E67
:10072000506EF90E516EE8DF502EFBD74F50195C1A
:100730000AE303E14E50185C06E3196A186A010ED9
:10074000016E07D003D0000E016E03D002D0000E60
:10075000016EAFEF03F04F6A4DC04EF0DAD7015291
:1007600006E04A2A4A50030801E24A6A4B6A69EFE6
:1007700005F0938A81BA1BD0182AD8B4192A020E20
:10078000506EF90E516EB8DF502EFBD74F50195CEA
:100790000AE303E14E50185C06E3196A186A010E79
:1007A000016E07D003D0000E016E03D002D0000E00
:1007B000016E79EF04F04E38526E0F0E52164E5005
:1007C0000F0B516E52500A0DF3505124506E4F5280
:1007D00002E1502A01D0500650C054F00A0E556E66
:1007E0001CDE01C052F050C054F00A0E556E15DEEA
:1007F00000C051F05238006EF00E0016005051103B
:10080000536E53C001F012009380050E006E002E4F
:10081000FED79382060E006E002EFED78A9093902C
:10082000050E006E002EFED78A929392D00E506E67
:10083000E1DC4EC050F0DEDC4FC050F0DBDC9390CA
:100840000000938281A2FED7050E006E002EFED717
:1008500000D000009380050E006E002EFED712001F
:100860002F50590802E12F6A06D02FC04EF04F6A70
:10087000A2DF01C02FF04E6A2FC04FF0C5DF73EF2B
:1008800004F03050590802E1306A06D030C04EF012
:100890004F6A91DF01C030F0010E4E6E30C04FF054
:1008A000B3DF73EF04F03150230802E1316A06D060
:1008B00031C04EF04F6A7FDF01C031F0020E4E6E44
:1008C00031C04FF0A1DF73EF04F04A50010A05E098
:1008D000030A05E0010A05E006D0C2D704D0D1D74B
:1008E00002D0E1D700D07DEF04F04F6A4DC04EF04A
:1008F00040D7015204E04B6AE8D7A0DEE3DE6CEF9C
:1009000005F0938681B61BD0182AD8B4192A020E96
:10091000506EF90E516EF0DE502EFBD74F50195C21
:100920000AE303E14E50185C06E3196A186A010EE7
:10093000016E07D003D0000E016E03D002D0000E6E
:10094000016EEFEF04F02F5203E1590E2F6E07D026
:100950002FC04EF0010E4F6E2EDF01C02FF04E6AF9
:100960002FC04FF051DFE9EF04F0305203E1590E90
:10097000306E07D030C04EF0010E4F6E1CDF01C04C
:1009800030F0010E4E6E30C04FF03EDFE9EF04F064
:10099000315203E1170E316E07D031C04EF0010E17
:1009A0004F6E09DF01C031F0020E4E6E31C04FF0C4
:1009B0002BDFE9EF04F04A50010A05E0030A05E0E5
:1009C000010A05E006D0BFD704D0CFD702D0E0D7C8
:1009D00000D0F3EF04F04F6A4DC04EF092D70152B1
:1009E00004E04B6AE8D72ADE6DDE6FEF05F0F86AA7
:1009F000D09E078EB886080EAF6E020EB06EA60EA1
:100A0000AC6E900EAB6E196A186A3C68220E416E8D
:100A1000200E426E439043924394C150C00B0F0985
:100A2000C16E070EB46E0FD00C401AFF1680303323
:100A30001503160221909230301008200220909663
:100A4000000000000000000EF86E0A0EF76E280E7F
:100A5000F66E0900F550006E000A13E00900F5502B
:100A6000016EE8BE05D00F0BEA6E0900F5CFE9FF75
:100A700001BC090001AC0900F5CFEEFF004EE9D73B
:100A8000F9D7F86ADDEF00F0A80ED56ED76AD66AFE
:100A9000010E456E320E466EB50EB16E0B0EB36E84
:100AA000DC0EB26EC00EF212A082496A4A6AAAD463
:100AB00065D54950090814E34A5201E0D2D54C6A81
:100AC0004C50090803E3FEDD4C2AFAD73C0E4D6E6C
:100AD00042D6280E4D6E09D7280E4D6E7CD711D008
:100AE000496A4B50090802E34B2A01D04A6A080EB2
:100AF0004D6E63EC01F02F50485C03E02FC048F0CE
:060B00009DDDD6D70300C5
:020000040030CA
:0E00000007CC3E1E0087A1000FC00FE00F408E
:00000001FF
;PIC18F4550
;CRC=A0D4  CREATED="16-Oct-23 14:59"
