:10000000CAEF07F0F76A140FF66E000EF722090028
:10001000F5501200C0F9A4B0999282F880908883BC
:10002000C6A1868EF76A340FF66E000EF72209001D
:10003000F550120080C094D4F76A480FF66E000E97
:10004000F7220900F5501200000102040305010225
:100050002003070306060204030306060203030542
:10006000070307202007070606030305000606040A
:10007000030501010720200700060204030500060E
:1000800002030305F76A940FF66E000EF7220900CB
:10009000F5501200070F1F1F1F1F1F1F1F1F1F00DC
:1000A000000000001C1E1F1F1F1F1F1F000000005C
:1000B000001F1F1F1F1F1F1F1F1F0F071F1F1F1F97
:1000C0001F1F1E1C1F1F1F0000001F1F1F1F1F1FA1
:1000D0001F1F1F1F2E002E002E004E4F204448547D
:1000E00031310000444F4320534149204455204CB6
:1000F000494555204448543131004E4F2044533136
:100100003842323000004F4E20004F4646004C4DE2
:100110003335422042555A5A3A00516A5150070825
:100120000EE350BE02D08D9401D08D8496949690AB
:100130008D9096908D80D8905036512AEFD712002E
:1001400039C03AF038C03BF03AC050F0E6DF3BC06F
:1001500050F0E3DF1200396A386AF2DF396A386A30
:10016000EFDF396A386AECDF396A386AE9DF959679
:100170008C8695968C9695988C8895988C98959A5F
:100180008C8A959A8C9A959E8C8E959E8C9E959431
:100190008C8495948C9439683868D2DF39683868D3
:1001A000CFDF959C8C8C959C8C9CE3EF00F0FF0E30
:1001B000926E3C0E936EF10E946E000E966E956EDE
:1001C000956A8C6AC8D7F19E056A046AC050C00B54
:1001D0000209C06EC08EC280C150C00B0C09C16E36
:1001E00095908C9018EF08F026C050F096DF27C04D
:1001F00050F093DF28C050F090DF29C050F08DDF21
:1002000095948C8495948C940DEF01F04E50286E4B
:10021000281E4FC029F0291EE7D712002A802AC0C5
:100220004EF04DC04FF0F2DF2A902AC04EF04DC084
:100230004FF0ECDF12002A944CC04DF0EFDF1200BB
:10024000EA6A440EE96EEF500DE0060E016E006A98
:10025000002EFED7012EFBD77B0E006E002EFED7A0
:10026000EF2EF3D712002A902A922A842A96380E6B
:100270004C6EE1DF420E006E002EFED700000C0E29
:100280004C6ED9DF420E006E002EFED70000010E2C
:100290004C6ED1DF020E446ED3DF060E4C6ECBDF08
:1002A000420E006E002EFED700001AEF08F02A84DE
:1002B00049C04DF0B3DF1200400E4C6EBCDF386A0F
:1002C00038503F080DE3036A3850F2CF39F0F29E00
:1002D000D9DE39BEF28E396E496EE9DF382AF0D7A1
:1002E0001CEF08F0036A4950F2CF4BF0F29E9ADE01
:1002F0004BBEF28E4A244B6E4C6E9DDF12000900FD
:10030000F5520CE0F6CF40F0F7CF41F0F5CF49F0D1
:10031000CEDF40C0F6FF41C0F7FFF1D71200496AB7
:100320000B0E4A6EDFDF0A0EF66E010EF76EE7DF88
:1003300029EF08F08E0E006E45C001F044C002F0B7
:10034000036A015209E102C001F0026A080E005E70
:10035000015202E1006A08D0D89001BE04D00236F2
:1003600001360006F9D7019E1200800ED8B2491A54
:100370004E6A4F6A45C04DF049504D1A4450D8B4AA
:10038000DCD04C6E006E4850D8B4E0D04C5ED8B48F
:1003900081D03DE349C052F0528E4AC051F04BC06B
:1003A00050F04F6AD8905232513250324F324C2E68
:1003B000F8D74DAE03D04E80DDD04E904C904E8895
:1003C000EA6A470EE96EE9D04E984DBE0AD04CA0BD
:1003D00013D05232513250324F32002AD8B4C5D0E5
:1003E0000BD052BE0CD0D8904F36503651365236C4
:1003F0000006D8B4BAD0F5D74E8C6BD04E9C45C011
:100400004DF045AE02D0528EA9D0529EA7D048C022
:100410004CF048C000F044504C5E45C052F0528E43
:1004200046C051F047C050F04F6AD8905232513216
:1004300050324F324C2EF8D74DAE03D04E829AD068
:100440004E924C904E8AEA6A4B0EE96EA6D04E9AB6
:100450004DBE0AD04CA013D05232513250324F32DE
:10046000002AD8B482D00BD052BE0CD0D8904F36D0
:100470005036513652360006D8B477D0F5D74E8E66
:1004800028D04E9E49C04DF049AE02D0528E66D063
:10049000529E64D049C052F0528E4AC051F04BC0B7
:1004A00050F04DAE04D0529E4E8464D04E944F6AAC
:1004B0004C90EA6A470EE96E70D04DBE1CD045C024
:1004C0004DF04CA006D05232513250324F32002AF9
:1004D0004CE04FAE0BD0502A09E1512A07E1522AD5
:1004E00005E1523251325032002A3FE04EBC86D7ED
:1004F0004EBEC7D71CD0800E521A52AE04D03AD08E
:1005000049C04DF00AD045C04DF0525206E151525B
:1005100004E1505202E1006A21D052BE08D0D890C6
:100520004F36503651365236002EF7D71ED04DAECC
:1005300002D0528E13D0529E11D048C000F049C054
:1005400052F04AC051F04BC050F008D044C000F007
:1005500045C052F046C051F047C050F052C001F0C3
:1005600051C002F050C003F034D0006A016A026A40
:10057000036A2FD04F6A501E511E521E4F1E4F2A23
:1005800005E1502A03E1512A01E1522A4EB015D764
:100590004EB256D74EB48AD7B3D7EF50502605E3A4
:1005A000512A03E1522AD8B44C80ED52EF50512623
:1005B00003E3522AD8B44C80ED52EF50EFBE01D085
:1005C000800A5226D8B04C804EB8FED64EBA3FD7DD
:1005D00074D712004450D8B4A5D0506E4850D8B447
:1005E000A1D0505E05E37F0E5026D8B09BD006D038
:1005F000810E505ED8A096D0D8B494D050C000F0F0
:10060000016A026A036A4F6A45C04EF04E8E46C0C8
:100610004DF047C04CF0190E506E4B504C5E0DE241
:10062000010E4D5E0AE24E5E08E24F5E06E24F2A80
:100630004E2A4D2A4B504C2628D04A504D5E12E28D
:10064000010E4E5E0FE24F5E0DE24F2A4E2A4A50D7
:100650004D264B504C2619E34D2A17E14E2A15E141
:100660004F2A13D0495080094E5E0EE2010E4F5EB4
:100670000BE24F2A495080094E264A504D26E9E3A5
:100680004E2AE7E14F2AE5D70380502E01D00BD048
:10069000D8904C364D364E364F36D890033602360B
:1006A00001365136BAD751A006D0D8900132023265
:1006B0000332513202D0000635E051BE1ED0D89030
:1006C0004C364D364E364F364B504C5E07E2010EDF
:1006D0004D5E04E24E5E02E24F5E1AE34A504D5E0A
:1006E00005E2010E4E5E02E24F5E12E349508009C0
:1006F0004E5E03E2010E4F5E0BE3032A09E1022A7C
:1007000007E1012A05E1002A0DE00132023203323D
:1007100045C050F04950501A50AE02D0018E06D05C
:10072000019E04D0006A016A026A036A12003E3424
:10073000006E0036FC0E0016C250C30B0010C26ED5
:10074000200E006E002EFED700D00000426A416AE3
:10075000406A3F6A436A3D50435C26E2C282C2B2AD
:10076000FED7C4CF03F0C3CF44F0C4CF45F0E2DDE1
:10077000D89242C047F041C046F040C045F03FC06B
:1007800044F003C04BF002C04AF001C049F000C081
:1007900048F0EBDD03C042F002C041F001C040F080
:1007A00000C03FF0432AD7D7456A3DC044F0C2DDC0
:1007B00042C047F041C046F040C045F03FC044F061
:1007C00003C04BF002C04AF001C049F000C048F03D
:1007D00001DF03C042F002C041F001C040F000C0A0
:1007E0003FF03FC000F040C001F041C002F042C005
:1007F00003F004EF05F08E0E006E4150005E42C023
:1008000002F043C001F0028E005209E0D89002527B
:1008100002E1015204E002320132002EF7D742AE6B
:1008200005D0011E021E012AD8B4022A120041502E
:10083000D8B471D0006E4550D8B46DD0002604E312
:10084000810E002668E204D07F0E005E64E363E060
:1008500042C049F04650491A428E468E44504802E2
:10086000F4CF4BF043504702F4CF03F0F3CF4AF0FC
:100870004802F3504B26F4504A22000E0322445003
:100880004702F3504B26F4504A22000E026A03221C
:10089000022242504802F3504A26F4500322000E2E
:1008A000022242504702F3500326F4500222000E67
:1008B000016A012244504602F3504A26F4500322B2
:1008C000000E0222012243504602F3500326F45048
:1008D0000222000E012242504602F3500226F4503A
:1008E0000122002A01BE05D04A36033602360136FF
:1008F0000006000E4AAE0AD0032A0222012201504D
:1009000005E1025003E1035001E1002A49BE018ED6
:1009100049AE019E04D0006A016A026A036ADAEFF6
:1009200004F040C047F03FC046F03EC045F03DC037
:1009300044F04B6A4A6A496A7F0E486E4BDE03C038
:1009400044F002C043F001C042F000C041F053DF68
:1009500002C02CF001C02BF02CC045F02BC044F09D
:10096000E9DCD88240C047F03FC046F03EC045F0C9
:100970003DC044F003C04BF002C04AF001C049F052
:1009800000C048F0F2DC03C040F002C03FF001C0FC
:100990003EF000C03DF040C044F03FC043F03EC0D8
:1009A00042F03DC041F0486A476A480E466E850EE7
:1009B000456E3DD703C040F002C03FF001C03EF09D
:1009C00000C03DF040C047F03FC046F03EC045F09B
:1009D0003DC044F04B6A4A6A496A7F0E486EFADDB0
:1009E00003C044F002C043F001C042F000C041F037
:1009F00002DF02C02EF001C02DF02EEF05F038C04E
:100A00003DF0010E3E6E93D603C03CF002C03BF0B9
:100A100001C03AF000C039F03CC047F03BC046F09E
:100A20003AC045F039C044F0AA0E4B6EF10E4A6E42
:100A3000020E496E800E486ECDDD03C03CF002C050
:100A40003BF001C03AF000C039F03CC040F03BC080
:100A50003FF03AC03EF039C03DF063D72CC033F0D0
:100A60002BC032F02EC035F02DC034F02CEF08F042
:100A7000016A026A006A036A485002E1475018E0BE
:100A8000100E496ED890453646360036033648502B
:100A9000035C02E14750005C07E34750005ED8A0CA
:100AA00003064850035ED88001360236492EEAD745
:100AB0001200006A016A4850D89049B000260032FE
:100AC000013249B200260032013249B40026003218
:100AD000013249B600260032013249B80026003200
:100AE000013249BA00260032013249BC00260032E8
:100AF000013249BE00260032013299EF05F045C0AF
:100B000049F046C04AF072EC01F0476A47500508C8
:100B100027E34750030808E1010E4524486E496E5B
:100B200046C04AF072EC01F044C048F0060E496E2F
:100B3000C0D70150496A486E036A47504824016E85
:100B4000495003220150F2CF48F0F29E1CEC00F015
:100B500048BEF28E486E496E57EC01F0472AD6D750
:100B6000120043C049F044C04AF072EC01F0456AFB
:100B70004550050811E34550030808E1010E4324E0
:100B8000466E496E44C04AF072EC01F0200E496E88
:100B900057EC01F0452AECD70EEF06F03EC049F0C5
:100BA0003FC04AF072EC01F03DC046F03CC045F059
:100BB000486A0A0E476E5CDF02C044F001C043F091
:100BC00002C046F001C045F0486A0A0E476E50DF89
:100BD00000C041F03DC046F03CC045F0486A0A0EF6
:100BE000476E46DF00C042F0030E3F24436E42C012
:100BF00044F03EC045F0466E82DF415208E140526B
:100C000006E03EC043F03FC044F0ABD707D041C040
:100C100044F03EC045F03FC046F071DF63EF06F0A0
:100C20004250016A415C03E241C000F00CD0006A0E
:100C3000080E436E413600364250005CD8B0006E5C
:100C40000136432EF7D712003EC049F03FC04AF0AC
:100C500072EC01F0D60EF66E000EF76E7FEC01F02E
:100C60003DC041F00A0E426EDBDF01C041F00A0ECA
:100C7000426ED6DF300E0024406E496E57EC01F014
:100C80003DC041F00A0E426ECBDF300E0024406EB4
:100C9000496E57EC01F06EEF06F03250365C03E11E
:100CA0003350375C10E033C037F032C036F03A5280
:100CB0000AE033C03DF032C03CF038C03EF039C0ED
:100CC0003FF0406A6BD73B5209E0060E39243C6E78
:100CD00034C03DF038C03EF03F6EB6D732EF08F07A
:100CE000036A3B50080FE96E000E0320EA6E3AC01B
:100CF00041F00A0E426E94DF036A0050F2CF3FF0DB
:100D0000F29E02EC00F03FBEF28EEF6E010E3B5CF5
:100D1000036A080FE96E000E0320EA6E3AC041F044
:100D20000A0E426E7DDF01C041F00A0E426E78DF8E
:100D3000036A0050F2CF3FF0F29E02EC00F03FBE9B
:100D4000F28EEF6E3C2C14D0010E3B5C036A080F50
:100D5000E96E000E0320EA6EEF50C00809E1010EB3
:100D60003B5C036A080FE96E000E0320EA6EEF6831
:100D7000D8EF06F00BC050F08DEC00F00AC050F038
:100D80008DEC00F009C050F08DEC00F008C050F080
:100D90008DEC00F0959C8C9C959C8C8CD9EF06F08A
:100DA000395207E032C03AF038C03BF03C6A98D77D
:100DB000E1D737EF08F004C043F005C044F044C069
:100DC00050F08DEC00F043C050F08DEC00F09596A3
:100DD0008C8695968C9612000580EDDF12000594A6
:100DE000EADF12000590E7DF12000584E4DF12005D
:100DF0000580E1DF42C043F0432A4306D8B404D063
:100E0000446820EC01F0F9D741C044F020EC01F037
:100E10000590D1DF12003E5203E13D502F5C08E205
:100E200031B006D03180319431B2D6DFD8DF1BD05B
:100E30003E5209E12F503D5C06E231A004D03190D2
:100E400031B2D0DF10D03E520EE130503D5C0BE2AB
:100E500031B009D031B407D0C8DF3184010E426E01
:100E60002C0E416EC5DFC8EF07F03E5203E13D5046
:100E70002F5C0DE2405203E13F502F5C08E231B09D
:100E800006D03180319431B2A7DFA9DF25D03E52A0
:100E90000EE12F503D5C0BE2405209E12F503F5CC8
:100EA00006E231A004D0319031B29CDF15D03E5221
:100EB00013E130503D5C10E240520EE130503F5C97
:100EC0000BE231B009D031B407D08FDF3184010E8D
:100ED000426E2C0E416E8CDFC8EF07F03E5208E1E7
:100EE0003D502F5C05E3405203E13F502F5C08E288
:100EF00031B006D03180319431B26EDF70DF25D051
:100F00003E520EE12F503D5C0BE2405209E12F5062
:100F10003F5C06E231A004D0319031B263DF15D0DE
:100F20003E5203E130503D5C05E340520EE130504B
:100F30003F5C0BE231B009D031B407D056DF3184C9
:100F4000010E426E2C0E416E53DFC8EF07F03C2CB1
:100F500006D039C03EF038C03DF05DD719D03C50C6
:100F600002080AE139C03EF038C03DF03BC040F015
:100F70003AC03FF07AD70CD03C50030809E139C0A1
:100F80003EF038C03DF03BC040F03AC03FF0A6D73D
:100F900040EF08F0F86AD09EB886080EAF6E020ED9
:100FA000B06EA60EAC6E900EAB6E076A066A2A682B
:100FB000220E2F6E200E306E319031923194376AAE
:100FC000366AC150C00B0F09C16E070EB46E0FD048
:100FD0000C4008FF16803033150316022190923022
:100FE0003010082002209096000000000000000E43
:100FF000F86E0F0EF76ED00EF66E0900F550006E0B
:10100000000A13E00900F550016EE8BE05D00F0B91
:10101000EA6E0900F5CFE9FF01BC090001AC090047
:10102000F5CFEEFF004EE9D7F9D7F86AD7EF00F019
:1010300033EF01F05CEF01F0496A4A6A72EC01F0AB
:101040000E0EF66E010EF76E7FEC01F031928FEF0F
:1010500001F0640E386ED3D4010E386E396A3A6EE0
:101060003B6E1BD6030E386E010E396E99D633C017
:1010700039F032C038F03B6A3A6A010E3C6E67D7ED
:04108000E8D70300AA
:020000040030CA
:0E00000007CC3E1E0087A1000FC00FE00F408E
:00000001FF
;PIC18F4550
;CRC=B7F7  CREATED="27-Nov-23 14:49"
