:10000000DBEF00F0F76A140FF66E000EF72209001E
:10001000F55012007FBFDFEFF7FBFDFEFF002E0063
:100020002E002E004E4F2044485431310000444FE2
:100030004320534149204455204C494555204448CC
:10004000543131004E4F2044533138423230000099
:100050003A6A3A5007080EE339BE02D08D9401D0B7
:100060008D84969496908D9096908D80D890393608
:100070003A2AEFD7120035C036F034C037F036C018
:1000800039F0E6DF37C039F0E3DF1200356A346A51
:10009000F2DF356A346AEFDF356A346AECDF356ADD
:1000A000346AE9DF95968C8695968C9695988C881F
:1000B00095988C98959A8C8A959A8C9A959E8C8E08
:1000C000959E8C9E95948C8495948C943568346818
:1000D000D2DF35683468CFDF959C8C8C959C8C9CE6
:1000E0007EEF00F0FF0E926E3C0E936EF10E946E5A
:1000F000000E966E956E956A8C6AC8D7F19E056A59
:10010000046AC050C00B0209C06EC08EC280C150CC
:10011000C00B0C09C16E95908C9026EF01F0036A1C
:100120003650F2CF38F0F29E6DDF38BEF28E016E9F
:10013000386E381E38C039F08BDF37C038F0381EC3
:1001400038C039F085DF959A8C8A959A8C9A12007E
:10015000EA6A350EE96EEF500DE0060E016E006A98
:10016000002EFED7012EFBD77B0E006E002EFED791
:10017000EF2EF3D71200080E366E3768D0DF12006C
:10018000346A346A3450070814E3036A34500C0F9D
:10019000E96E000E0320EA6EEFCF35F034C036F082
:1001A00035C037F0BCDF010E356ED2DFE4DF342A14
:1001B000E9D740EF01F0F86AD09EB886080EAF6E1E
:1001C000020EB06EA60EAC6E900EAB6E076A066A9B
:1001D0002A68220E2F6E200E306E319031923194AB
:1001E000C150C00B0F09C16E070EB46E0FD00C408A
:1001F00008FF16803033150316022190923030101C
:10020000082002209096000000000000000EF86E0A
:10021000010EF76EEE0EF66E0900F550006E000A44
:1002200013E00900F550016EE8BE05D00F0BEA6E31
:100230000900F5CFE9FF01BC090001AC0900F5CFC9
:10024000EEFF004EE9D7F9D7F86A4CD7C00E0C6E16
:10025000F90E0D6EA40E0E6EB00E0F6E990E106E8E
:10026000920E116E820E126EF80E136E336A326A9F
:1002700033BE05D0335208E13250630805E380D71E
:10028000322AD8B4332AF4D7040E346EFA0E356EFF
:0C0290005FDF342EFBD76FDFE9D70300DF
:020000040030CA
:0E00000007CC3E1E0087A1000FC00FE00F408E
:00000001FF
;PIC18F4550
;CRC=E480  CREATED="02-Oct-23 14:51"
