:04000000BFEF02F05C
:08000800046ED8CF05F0E0CF33
:1000100006F00001E9CF0CF0EACF07F0E1CF08F0DD
:10002000E2CF09F0D9CF0AF0DACF0BF0F3CF12F01C
:10003000F4CF13F0FACF14F000C00EF001C00FF0AF
:1000400002C010F003C011F0A0A22AEF00F0A1B28C
:10005000DBEF00F09DAA30EF00F09EBAD1EF00F088
:100060000EC000F00FC001F010C002F011C003F08C
:100070000CC0E9FF07C0EAFF078E08C0E1FF09C016
:10008000E2FF0AC0D9FF0BC0DAFF12C0F3FF13C0B2
:10009000F4FF14C0FAFF045006C0E0FF05C0D8FF0B
:1000A0001000F2CF0DF0F29EF76ABC0FF66E000E54
:1000B000F7220900F5500DBEF28E120080C094D4D4
:1000C000F2CF0DF0F29EF76ADA0FF66E000EF7220D
:1000D0000900F5500DBEF28E120000010204030566
:1000E00001022003070306060204030306060203B7
:1000F000030507030720200707060603030500067C
:100100000604030501010720200700060204030579
:10011000000602030305F2CF0DF0F29EF76A300FDE
:10012000F66E010EF7220900F5500DBEF28E120098
:10013000070F1F1F1F1F1F1F1F1F1F000000000092
:100140001C1E1F1F1F1F1F1F00000000001F1F1F5E
:100150001F1F1F1F1F1F0F071F1F1F1F1F1F1E1CDB
:100160001F1F1F0000001F1F1F1F1F1F1F1F1F1FFC
:100170002E002E002E004E4F2044485431310000F6
:10018000444F4320534149204455204C4945552074
:100190004448543131004E4F2044533138423230BC
:1001A00000009EAA05D09EAAFED7AECF58F0438687
:1001B0009E9A30EF00F05B2A0B0EB36EDC0EB26E2F
:1001C000A19230EF00F044656D004769617900004D
:1001D0006A6B6A5107080EE369BF02D08D9401D0A3
:1001E0008D84969496908D9096908D80D890693756
:1001F0006A2BEFD712005DC05EF05CC05FF05EC09E
:1002000069F0E6DF5FC069F0E3DF12005D6A5C6AF7
:10021000F2DF5D6A5C6AEFDF5D6A5C6AECDF5D6A93
:100220005C6AE9DF95968C8695968C9695988C8875
:1002300095988C98959A8C8A959A8C9A959E8C8E86
:10024000959E8C9E95948C8495948C945D685C6846
:10025000D2DF5D685C68CFDF959C8C8C959C8C9C14
:100260003EEF01F0FF0E926E3C0E936EF10E946E17
:10027000000E966E956E956A8C6AC8D7F19E176AC5
:10028000166AC050C00B0209C06EC08EC280C15039
:10029000C00B0C09C16E95908C9019EF03F038C01B
:1002A00069F096DF39C069F093DF3AC069F090DFFA
:1002B0003BC069F08DDF95948C8495948C9468EFA5
:1002C00001F067513A6E3A1E68C03BF03B1EE7D71B
:1002D00012003C803CC067F066C068F0F2DF3C90E2
:1002E0003CC067F066C068F0ECDF12003C9465C06B
:1002F00066F0EFDF1200EA6A5C0EE96EEF500DE087
:10030000060E016E006A002EFED7012EFBD77B0E73
:10031000006E002EFED7EF2EF3D7A9EF01F03C9030
:100320003C923C843C96380E656FE0DF420E006ED6
:10033000002EFED700000C0E656FD8DF420E006E57
:10034000002EFED70000010E656FD0DF020E5C6E3E
:10035000D2D7060E656FCADF420E006E002EFED7A2
:1003600000001AEF03F0036A6251F2CF64F0F29ECC
:1003700098DE64BFF28E6325646F656FB7DF12008D
:100380003C8462C066F0A5DF1200400E656FAEDFF0
:100390005C6A5C503F080DE3036A5C50F2CF5DF08D
:1003A000F29EB9DE5DBEF28E5D6E626FE9DF5C2AA1
:1003B000F0D73AEF03F00900F5520CE0F6CF5CF00D
:1003C000F7CF5DF0F5CF62F0DBDF5CC0F6FF5DC01C
:1003D000F7FFF1D7120043A60FD0030E626F59C08A
:1003E00063F0C1DF58C062F0CBDF5950120802E35E
:1003F000592A01D0596A439656EF03F00A0E5B5E04
:100400005A2A5A503C0800E05A6A58EF03F05C50F0
:100410005D18800B5F6E5CAE02D05C1E5C2A5DAE28
:1004200002D05D1E5D2A5D50016A5C5C03E25CC027
:1004300000F00CD0006A080E5E6E5C3600365D502F
:10044000005CD8B0006E01365E2EF7D75FAE02D0EA
:10045000011E012A1200006A016A6151D89062B13E
:1004600000260032013262B300260032013262B54A
:1004700000260032013262B700260032013262B932
:1004800000260032013262BB00260032013262BD1A
:1004900000260032013262BF00260032013269EFCD
:1004A00002F05EC062F05FC063F05DDF606B6051C0
:1004B000050824E36051030807E1010E5E24616F23
:1004C000626F5FC063F04FDF5DC061F0060E626F68
:1004D000C2D70150626B616F036A60516125016E82
:1004E000625103220150F2CF61F0F29EE9DD61BF5B
:1004F000F28E616F626F44DF602BD9D712005AC051
:100500005CF00A0E5D6E83DF01C05CF001C05DF03F
:10051000010E5E6E0E0E5F6EC4DF5AC05CF00A0EF6
:100520005D6E75DF00C05CF000C05DF0010E5E6EB8
:10053000110E5F6EB6DF59EF03F05AC05CF0100E7B
:100540005D6E65DF01C05CF001C05DF0010E5E6EA6
:100550005F6AA7DF5AC05CF0100E5D6E58DF00C006
:100560005CF000C05DF0010E5E6E030E5F6E99DF01
:100570005AEF03F09EA8FED7AD6E5CEF03F0F86A69
:10058000D09E078EB886080EAF6E020EB06EA60E15
:10059000AC6E900EAB6E196A186A3C68220E416E02
:1005A000200E426E439043924394586A596A439690
:1005B000C150C00B0F09C16E070EB46E1AD00C40AB
:1005C0001AFF168030331503160221909230301036
:1005D0000820022090960000000013004454444C70
:1005E00020554152543A205049433C3D3E5043002F
:1005F0000000000EF86E050EF76EBE0EF66E0900D6
:10060000F550006E000A13E00900F550016EE8BED7
:1006100005D00F0BEA6E0900F5CFE9FF01BC090018
:1006200001AC0900F5CFEEFF004EE9D7F9D7F86A23
:1006300019D675D6626B636B96DE576A57501308EE
:100640000EE3036A5750440FE96E000E0320EA6E72
:10065000EFCF5CF05CC062F093DE572AEFD7C00E9C
:10066000F2129D8AB50EB16E0B0EB36EDC0EB26E39
:10067000A0828BD6010E626F070E636F74DEC60E0A
:10068000F66E010EF76E97DE020E626F070E636F55
:100690006ADECA0EF66E010EF76E8DDE5A6A5B6A6E
:1006A0005BBE03D05B50090802E395D605D0A6D601
:0C06B00026D743D75A505ED7F3D703007B
:020000040030CA
:0E00000007CC3E1E0087A1000FC00FE00F408E
:00000001FF
;PIC18F4550
;CRC=414A  CREATED="12-Dec-23 21:15"
