:1000000089EF05F0F76A140FF66E000EF72209006B
:10001000F5501200C0F9A4B0999282F880908883BC
:10002000C6A1868EF76A340FF66E000EF72209001D
:10003000F550120080C094D4F76A480FF66E000E97
:10004000F7220900F5501200000102040305010225
:100050002003070306060204030306060203030542
:10006000070307202007070606030305000606040A
:10007000030501010720200700060204030500060E
:1000800002030305F76A940FF66E000EF7220900CB
:10009000F5501200070F1F1F1F1F1F1F1F1F1F00DC
:1000A000000000001C1E1F1F1F1F1F1F000000005C
:1000B000001F1F1F1F1F1F1F1F1F0F071F1F1F1F97
:1000C0001F1F1E1C1F1F1F0000001F1F1F1F1F1FA1
:1000D0001F1F1F1F2E002E002E004E4F204448547D
:1000E00031310000444F4320534149204455204CB6
:1000F000494555204448543131004E4F2044533136
:100100003842323000004F4E00004F464600504308
:10011000462D4C4D333541005043462D4C4D333523
:10012000420042555A5A3A004E6A4E5007080EE3B2
:100130004DBE02D08D9401D08D84969496908D9072
:1001400096908D80D8904D364E2AEFD7120038C049
:1001500039F037C03AF039C04DF0E6DF3AC04DF023
:10016000E3DF1200386A376AF2DF386A376AEFDF96
:10017000386A376AECDF386A376AE9DF95968C8629
:1001800095968C9695988C8895988C98959A8C8A4B
:10019000959A8C9A959E8C8E959E8C9E95948C8427
:1001A00095948C9438683768D2DF38683768CFDF29
:1001B000959C8C8C959C8C9CEAEF00F0FF0E926EC7
:1001C0003C0E936EF10E946E000E966E956E956ACF
:1001D0008C6AC8D7F19E056A046AC050C00B020938
:1001E000C06EC08EC280C150C00B0C09C16E95900C
:1001F0008C90D7EF05F026C04DF096DF27C04DF06C
:1002000093DF28C04DF090DF29C04DF08DDF95942D
:100210008C8495948C9414EF01F04B50286E281E1A
:100220004CC029F0291EE7D712002A802AC04BF0C3
:100230004AC04CF0F2DF2A902AC04BF04AC04CF082
:10024000ECDF12002A9449C04AF0EFDF1200EA6A9C
:10025000430EE96EEF500DE0060E016E006A002EAF
:10026000FED7012EFBD77B0E006E002EFED7EF2EA1
:10027000F3D712002A902A922A842A96380E496EC1
:10028000E1DF420E006E002EFED700000C0E496E1C
:10029000D9DF420E006E002EFED70000010E496E1F
:1002A000D1DF020E436ED3DF060E496ECBDF420E66
:1002B000006E002EFED70000D9EF05F02A8446C05C
:1002C0004AF0B3DF1200400E496EBCDF376A375088
:1002D0003F080DE3036A3750F2CF38F0F29ED2DECA
:1002E00038BEF28E386E466EE9DF372AF0D7DBEF84
:1002F00005F0036A4650F2CF48F0F29E93DE48BE06
:10030000F28E4724486E496E9DDF12000900F552B7
:100310000CE0F6CF37F0F7CF38F0F5CF46F0CEDF70
:1003200037C0F6FF38C0F7FFF1D71200466A0B0E50
:10033000476EDFDF0A0EF66E010EF76EE7DF120082
:10034000080E016E050E006E002EFED78A92939263
:10035000060E006E002EFED73F368A90D8B09380EE
:10036000D8A09390938281A2FED7012EEBD7050EE1
:10037000006E002EFED78A92939200009380060EA4
:10038000006E002EFED7060E006E002EFED7938262
:1003900081A2FED7016A060E006E002EFED781B044
:1003A00001808A9293928A90939012009380050E16
:1003B000006E002EFED79382060E006E002EFED732
:1003C0008A909390050E006E002EFED78A9293922B
:1003D000900E3F6EB5DF3EC03FF0B2DF939000005D
:1003E000938281A2FED7050E006E002EFED700D0AC
:1003F00000009380050E006E002EFED738EF02F04D
:10040000080E3F6E00C040F09380060E006E002E76
:10041000FED7938281A2FED781B0D88081A0D890E8
:100420000136050E006E002EFED793928A923F2E63
:10043000EBD79380060E006E002EFED78A904050B8
:10044000D8A493900000938281A2FED7050E006E7F
:10045000002EFED78A929392060E006E002EFED7D3
:100460008A9093904FEF02F03D6A3CC03EF09ED7D9
:100470009380050E006E002EFED79382060E006E4E
:10048000002EFED78A909390050E006E002EFED7A8
:100490008A929392910E3F6E53DF006AB1D701C0EA
:1004A0003DF093900000938281A2FED7050E006E6E
:1004B000002EFED700D000009380050E006E002EA7
:1004C000FED73DC001F094EF02F0016A026A006AB3
:1004D000036A455002E1445018E0100E466ED89071
:1004E00042364336003603364550035C02E1445041
:1004F000005C07E34450005ED8A003064550035E4D
:10050000D88001360236462EEAD712003A6A396A96
:100510003B6A38503B5C0EE2310E006E002EFED777
:1005200000D037C03CF0A0D701503926000E3A2247
:100530003B2AEFD73AC043F039C042F0456A38C091
:1005400044F0C3DF02C03AF001C039F039C000F016
:10055000036A39C001F01200006A016A4550D89060
:1005600046B000260032013246B200260032013287
:1005700046B400260032013246B60026003201326F
:1005800046B800260032013246BA00260032013257
:1005900046BC00260032013246BE0026003201323F
:1005A000EAEF02F042C046F043C047F0A2DE446AE0
:1005B0004450050824E34450030807E1010E422497
:1005C000456E466E43C047F094DE41C045F0060ECE
:1005D000466EC2D70150466A456E036A44504524B0
:1005E000016E465003220150F2CF45F0F29E24DD09
:1005F00045BEF28E456E466E61DE442AD9D71200A2
:1006000040C046F041C047F074DE426A42500508DF
:100610000FE34250030807E1010E4024436E466E8B
:1006200041C047F066DE200E466E48DE422AEED715
:1006300059EF03F03BC046F03CC047F05ADE3AC0E9
:1006400043F039C042F0456A0A0E446E3EDF02C0F4
:1006500041F001C040F002C043F001C042F0456AE1
:100660000A0E446E32DF00C03EF03AC043F039C09B
:1006700042F0456A0A0E446E28DF00C03FF0030EC8
:100680003C24406E3FC041F03BC042F0436E8ADFE5
:100690003E5208E13D5206E03BC040F03CC041F014
:1006A000AFD707D03EC041F03BC042F03CC043F062
:1006B00079DF12003250345C0BE032C034F03A6A19
:1006C00032C039F037C03BF038C03CF03D6AB2DF91
:1006D000F9EF03F03350355C0BE033C035F03A6A84
:1006E00033C039F037C03BF038C03CF03D6AA2DF80
:1006F000FEEF03F03E50016A3D5C03E23DC000F0B6
:100700000CD0006A080E3F6E3D3600363E50005C4D
:10071000D8B0006E01363F2EF7D71200036A38506A
:10072000080FE96E000E0320EA6E37C03DF00A0E96
:100730003E6EE0DF036A0050F2CF3CF0F29E62DCD6
:100740003CBEF28EEF6E010E385C036A080FE96E54
:10075000000E0320EA6E37C03DF00A0E3E6ECADF7F
:1007600001C03DF00A0E3E6EC5DF036A0050F2CFB5
:100770003CF0F29E47DC3CBEF28EEF6E392C14D07A
:10078000010E385C036A080FE96E000E0320EA6E62
:10079000EF50C00809E1010E385C036A080FE96EEA
:1007A000000E0320EA6EEF6812000BC04DF0BCDCB7
:1007B0000AC04DF0B9DC09C04DF0B6DC08C04DF000
:1007C000B3DC959C8C9C959C8C8C0BEF04F0400EBC
:1007D000376E320E386E9ADE01C032F0410E376E3F
:1007E000320E386E93DE01C033F0020E376E386A77
:1007F00061D7020E376E0A0E386E6CD732C037F0F2
:10080000010E386E396A8ADF33C037F0030E386E56
:10081000396A84DFCAD702EF06F004C042F005C08F
:1008200043F043C04DF080DC42C04DF07DDC959636
:100830008C8695968C9612000580EFDF1200059449
:10084000ECDF12000590E9DF12000584E6DF1200FC
:100850000580E3DF41C042F0422A4206D8B403D00B
:100860004368F5DCFAD740C043F0F1DC0590D5DFF2
:1008700012003D5203E13C502F5C08E231B006D03B
:100880003180319431B2D8DFDADF1BD03D5209E13B
:100890002F503C5C06E231A004D0319031B2D2DF5F
:1008A00010D03D520EE130503C5C0BE231B009D02B
:1008B00031B407D0CADF3184010E416E2C0E406E78
:1008C000C7DFF6EF04F03D5203E13C502F5C0DE230
:1008D0003F5203E13E502F5C08E231B006D0318038
:1008E000319431B2A9DFABDF25D03D520EE12F505C
:1008F0003C5C0BE23F5209E12F503E5C06E231A026
:1009000004D0319031B29EDF15D03D5213E130500A
:100910003C5C10E23F520EE130503E5C0BE231B0E5
:1009200009D031B407D091DF3184010E416E2C0E15
:10093000406E8EDFF6EF04F03D5208E13C502F5C34
:1009400005E33F5203E13E502F5C08E231B006D090
:100950003180319431B270DF72DF25D03D520EE12B
:100960002F503C5C0BE23F5209E12F503E5C06E207
:1009700031A004D0319031B265DF15D03D5203E192
:1009800030503C5C05E33F520EE130503E5C0BE2E0
:1009900031B009D031B407D058DF3184010E416E37
:1009A0002C0E406E55DFF6EF04F03B2C06D038C01D
:1009B0003DF037C03CF05DD719D03B5002080AE14A
:1009C00038C03DF037C03CF03AC03FF039C03EF08F
:1009D0007AD70CD03B50030809E138C03DF037C04E
:1009E0003CF03AC03FF039C03EF0A6D70BEF06F01E
:1009F000030E3A5E09E3EA6A3A0EE96EEF5004E04C
:100A000001D000D0EF2EFDD711EF05F0938481B413
:100A10001BD0062AD8B4072A020E396EF90E3A6E98
:100A2000E7D7392EFBD73850075C0AE303E137508C
:100A3000065C06E3076A066A010E016E07D003D062
:100A4000000E016E03D002D0000E016E37EF05F0EC
:100A5000466A0B0E476E4DDC060EF66E010EF76E03
:100A600055DC40EF05F0386A320E376ECFD70152B1
:100A70000BE0317231A202D0EBD702D057DCE2DEBC
:100A8000C80E436E27EC01F00CEF06F09380050EC4
:100A9000006E002EFED79382060E006E002EFED74B
:100AA0008A909390050E006E002EFED78A92939244
:100AB000900E3F6E45DC400E3F6E42DC37C03FF08B
:100AC0003FDC93900000938281A2FED7050E006E5A
:100AD000002EFED700D000009380050E006E002E81
:100AE000FED70FEF06F037C04DF094EC00F038C0A1
:100AF0004DF094EC00F039C04DF094EC00F03AC0A9
:100B00004DF094EC00F095988C8895988C981BEF9C
:100B100006F0F86AD09EB886080EAF6E020EB06E70
:100B2000A60EAC6E900EAB6E076A066A2A68220E9D
:100B30002F6E200E306E319031923194346A356AC6
:100B4000C150C00B0F09C16E070EB46E0FD00C4020
:100B500008FF1680303315031602219092303010B2
:100B6000082002209096000000000000000EF86EA1
:100B70000B0EF76E4E0EF66E0900F550006E000A71
:100B800013E00900F550016EE8BE05D00F0BEA6EC8
:100B90000900F5CFE9FF01BC090001AC0900F5CF60
:100BA000EEFF004EE9D7F9D7F86ADEEF00F03AEF32
:100BB00001F063EF01F0010E466E476A79EC01F037
:100BC0000E0EF66E010EF76E86EC01F0010E466E0B
:100BD0000A0E476E79EC01F0180EF66E010EF76EF4
:100BE00086EC01F0466A476A79EC01F0220EF66E57
:100BF000010EF76E86EC01F0319296EC01F0D20E08
:100C0000366EE5D5386A32C037F03A6A33C039F00B
:100C1000020E3B6ECAD627D736C037F037D73652CA
:100C200003E1D20E366E01D0362A376A386A396A45
:0A0C300036C03AF058D7E5D70300AC
:020000040030CA
:0E00000007CC3E1E0087A1000FC00FE00F408E
:00000001FF
;PIC18F4550
;CRC=2552  CREATED="04-Dec-23 15:58"
